:107C00000C94343E0C94513E0C94513E0C94513ED5
:107C10000C94513E0C94513E0C94513E0C94513EA8
:107C20000C94513E0C94513E0C94513E0C94513E98
:107C30000C94513E0C94513E0C94513E0C94513E88
:107C40000C94513E0C94513E0C94513E0C94513E78
:107C50000C94513E0C94513E0C94513E0C94513E68
:107C60000C94513E0C94513E11241FBECFEFD8E02E
:107C7000DEBFCDBF11E0A0E0B1E0EAEFFFE702C058
:107C800005900D92A030B107D9F711E0A0E0B1E066
:107C900001C01D92A53CB107E1F70E94D33E0C94B0
:107CA000FB3F0C94003E9091C00095FFFCCF809369
:107CB000C600089582E40E94533E8FE60E94533E20
:107CC0008FE60E94533E84E70E94533E89E60E945D
:107CD000533E8EE60E94533E87E60E94533E80E26A
:107CE0000E94533E81E40E94533E80E70E94533E2F
:107CF00080E70E94533E8AE00E94533EE0E0F0E0BD
:107D0000099508950F931F93CF93F999FECF409152
:107D100041015091420183E0FA0180935700E895B8
:107D200007B600FCFDCF8091450120E030E0C1E0C6
:107D3000D901AB5BBE4FF901E40FF51F11967C91A1
:107D4000119760E08B01080F111D0801C0935700C7
:107D5000E895112412968C9112972E5F3F4F203890
:107D6000310531F785E0FA0180935700E89507B6B1
:107D700000FCFDCF81E180935700E895CF911F91E2
:107D80000F910895809140019FEF06C0E82FF0E029
:107D9000EB5BFE4F90838F5F87FFF8CF80934001AE
:107DA0000E94823E0895CF93DF9300D000D0CDB7DC
:107DB000DEB7F89484B7898314BE8091600088612F
:107DC00080936000109260001092C0001092C10079
:107DD0001092C50080E18093C40086E08093C200C9
:107DE00088E18093C1008DE40E94533E81E60E94A9
:107DF000533E82E70E94533E8BE60E94533E82E34D
:107E00000E94533E82E40E94533E8CE40E94533E03
:107E10008AE00E94533E80E894E8AEE1B0E08983B6
:107E20009A83AB83BC8308C08091C00087FF04C0E5
:107E30008091C600803C99F089819A81AB81BC8198
:107E4000AC01BD01415050406040704049835A83AD
:107E50006B837C830097A105B10531F7C3C085E42E
:107E60000E94533E00ECE0E0F1E080E49091C0001D
:107E700097FFFCCF9091C6009193903CC9F0815040
:107E8000A9F7E0E0F1E0DF0117C09B3D61F4119636
:107E90002C9111972C3D11F4008303C02D3D09F462
:107EA0009083119601C090838F5F1196319604C024
:107EB000E0E0F1E0DF0180E09C91903C11F0803443
:107EC00021F70083882311F484E489C080910001A4
:107ED0008F3711F58091010190E0F82EEE2420916A
:107EE000020130E0E20EF31E280F391F21583F4FE8
:107EF000C701E3E0F1E004C04191240F311D019777
:107F00000097D1F7D080CC248181A601480F511D64
:107F10004217530709F469C086E561C0B0900401B7
:107F2000AA24809105017501E80EF11C80914001A1
:107F3000882311F00E94C23EC701A0E0B0E0809308
:107F4000410190934201A0934301B09344011092E8
:107F5000400144C08130A9F52EC080914001A82F76
:107F6000B0E0AB5BBE4FE12FF0E0E050FF4F9081FF
:107F70009C931F5F8F5F809340018038C1F40E9403
:107F8000823E109240018091410190914201A09166
:107F90004301B091440180589F4FAF4FBF4F809332
:107FA000410190934201A0934301B093440108948E
:107FB000E108F10801C014E051E0E516F10469F6AA
:107FC0000DC0823049F480914001882311F00E9455
:107FD000C23E0E945A3E02C089E401C085E40E946C
:107FE000533E41CF0E945A3E3ACF809103018823ED
:0A7FF00009F494CFAFCFF894FFCF4F
:0400000300007C007D
:00000001FF
