:100000000C94FD050C943E0C0C9425060C942506CE
:100010000C9425060C9425060C9425060C942506B4
:100020000C9425060C9425060C9425060C949F0C24
:100030000C9425060C9425060C9425060C94250694
:100040000C94970D0C9425060C94A7120C9425067D
:100050000C94D7120C9425060C9425060C942506B6
:100060000C9425060C9425060000000000000000FA
:100070000000000000000000000000000000000080
:100080000000000000000000000000000000000070
:100090000000000000000000000000000000000060
:1000A0000000000000000000000000000000000050
:1000B0000000000000000000000000000000000040
:1000C0000000000000000000000000010A03808022
:1000D0008080808080800080030303A0A0A0080AA5
:1000E00003121222FF2424FF484848050B0370A87E
:1000F000A0A0E03828A8A870200A0A036100920096
:1001000092009400640009800A401240124021804D
:10011000080A03304848483060928A8C7301030310
:10012000808080030D03204040808080808080801C
:10013000404020030D03804040202020202020202C
:1001400040408005040320F82050070705101010D8
:10015000FE10101001030C808080030109E00101F2
:100160000C80040A031010202020404040808006AC
:100170000A0378848484848484848478030A032032
:1001800060A020202020202020060A037884040478
:100190000408102040FC060A037884040438040490
:1001A000048478060A0308181828284848FC080818
:1001B000060A037C404080F88404048478060A031D
:1001C00078848080B8C484848478060A03FC080894
:1001D00010102020404040060A03788484847884EC
:1001E00084848478060A03788484848C7404048864
:1001F00070010706800000000000800109068000F1
:1002000000000000808080060705041860806018E8
:1002100004070406FE0000FE0607058060180418A7
:100220006080050A03708888081020404000400C58
:100230000D030F80304040204E909190A090A1106F
:10024000A120A3209DC0401020601F80090A030840
:1002500000140014001400220022007F00410080DE
:10026000808080070A03FC828282FC82828282FC78
:10027000070A0338448280808080824438070A035A
:10028000F88482828282828284F8070A03FE808058
:1002900080FE80808080FE060A03FC808080F880DB
:1002A00080808080080A033C428180808F81814267
:1002B0003C070A0382828282FE8282828282010A53
:1002C0000380808080808080808080050A03080809
:1002D0000808080808888870080A038182848890C2
:1002E000B0C8848281060A038080808080808080FC
:1002F00080FC090A038080C180C180A280A2809412
:10030000809480948088808880070A0382C2A2A299
:1003100092928A8A8682080A033C42818181818185
:1003200081423C070A03FC82828282FC80808080BA
:10033000080A033C4281818181818D423D070A0385
:10034000FC82828282FC88848482070A037C828207
:1003500080700C0282827C070A03FE1010101010BD
:1003600010101010070A03828282828282828244E5
:1003700038090A0380808080410041002200220069
:1003800014001400080008000D0A038208850845BF
:10039000104510451028A028A028A01040104007A4
:1003A0000A0382444428101028444482070A038226
:1003B000444428281010101010070A037E0408086F
:1003C0001010202040FE020D03C0808080808080BD
:1003D0008080808080C0040A0380804040402020CC
:1003E000201010020D03C0404040404040404040BB
:1003F0004040C0050504205050508807010FFE0200
:100400000203804005070670880878889868050A06
:1004100003808080B0C888888888F00507067088C7
:100420008080808870050A03080808689888888892
:100430008878050706708888F8808870040A033079
:100440004040E0404040404040050A0668988888A7
:10045000889868088870050A03808080B0C88888FA
:10046000888888010A0380000080808080808080E6
:10047000030D03200000202020202020202020C069
:10048000050A038080808890A0E0909088010A038C
:1004900080808080808080808080090706B300CCC7
:1004A0008088808880888088808880050706B0C81A
:1004B00088888888880507067088888888887005F5
:1004C0000A06B0C8888888C8B0808080050A066897
:1004D000988888889868080808030706A0C0808064
:1004E0008080800507067088807008887003090482
:1004F0004040E040404040406005070688888888CA
:1005000088887805070688885050502020090706FB
:10051000888088805500550055002200220005077C
:100520000688505020505088050A06888850505040
:1005300020202020C0050706F81010204040F803B6
:100540000D0320404040404080404040404020015A
:100550000C03808080808080808080808080030D7C
:1005600003804040404040204040404040800702DF
:1005700007729E000000070A031E2040FE40FE4056
:1005800040201E00000001030C808080070D030E38
:1005900008083C1010101010202020E003030CA0CD
:1005A000A0A009010C8880070C03101010FE101089
:1005B000101010101010070C031010FE1010101067
:1005C0001010FE101004020360900E0A03620094E3
:1005D000009400940068000B1814A414A414A4231D
:1005E00018070D002418007C828280700C02828221
:1005F0007C0306072040808040200B0A033BE04636
:10060000008200820083E082008200820046003B7C
:10061000E0000000070D002418007E0408081010F8
:10062000202040FE000000000000010303808080C5
:10063000010303808080030303A0A0A0030303A0A1
:10064000A0A0030307E0E0E0070109FE0D0109FF98
:10065000F804020350A00B0503FA20236023602353
:100660006022A0050A0348300070888070088870F6
:100670000306078040202040800A070677808840D4
:1006800088408FC0880088407780000000050A03FA
:10069000483000F81010204040F8070C0128008274
:1006A000444428281010101010000000010A068091
:1006B000008080808080808080060D0308080838D4
:1006C0005490A0A4E870404040060A0338444040DB
:1006D000F8202040708C050506A8508850A8070A0D
:1006E000038244442828FE10FE1010010C03808071
:1006F00080808000008080808080060C033048402D
:1007000060988CC46C10088870030103A00A0A0367
:100710003F0040809E40A140A040A040A1409E409C
:1007200040803F0004050370907090F00506072894
:1007300050A0A05028070406FE0202020000000A92
:100740000A033F0040809E40914091409E4092406D
:10075000914040803F00070102FE04040360909036
:1007600060070805101010FE101010FE040503703D
:10077000902040F004050370902090700202034026
:1007800080050A06888888888888F8808080070C19
:10079000037EF4F4F47414141414141414010108F2
:1007A0008003030D4020E002050340C040404005A7
:1007B00005037088888870050607A050282850A077
:1007C0000A0A034100C100420044004400088011AD
:1007D00080228023C040800A0A034100C2004200F8
:1007E00044004800098012402080210043C00B0AC9
:1007F0000370809080210092007200044008C011B4
:100800004011E02040060A0620002020204080847D
:100810008478090D0010000800000008001400147E
:10082000001400220022007F0041008080808009A7
:100830000D0004000800000008001400140014005B
:10084000220022007F00410080808080090D000C82
:1008500000120000000800140014001400220022FE
:10086000007F00410080808080090D000A00140094
:1008700000000800140014001400220022007F0071
:10088000410080808080090C0114000000080014E1
:100890000014001400220022007F004100808080AC
:1008A00080090C011C0014001C001400140014002A
:1008B000220022007F004100808080800C0A030F0C
:1008C000F012001200120023F022007E004200828B
:1008D0000083F0070D033844828080808082443892
:1008E000100838070D00201000FE808080FE8080F8
:1008F0008080FE070D00081000FE808080FE808052
:100900008080FE070D00182400FE808080FE80801D
:100910008080FE070C012800FE808080FE808080A1
:1009200080FE020D0080400040404040404040407A
:100930004040020D00408000808080808080808068
:100940008080040D006090004040404040404040A6
:100950004040030C01A00040404040404040404027
:1009600040080A037C424141F9414141427C070D64
:100970000014280082C2A2A292928A8A8682080D5E
:10098000001008003C42818181818181423C080D38
:10099000000810003C42818181818181423C080D28
:1009A000001824003C42818181818181423C080DF4
:1009B000001428003C42818181818181423C080CE5
:1009C0000114003C42818181818181423C05050600
:1009D0008870207088080A033D428585899191A11D
:1009E00042BC070D002010008282828282828282B5
:1009F0004438070D0008100082828282828282823F
:100A00004438070D0018240082828282828282820A
:100A10004438070C012800828282828282828244CA
:100A200038070D00081000824444282810101010C8
:100A300010070A038080FC86828286FC8080070A79
:100A4000033844848888888482A29C050A03201085
:100A50000070880878889868050A0310200070885C
:100A60000878889868050A033048007088087888F4
:100A70009868050A032850007088087888986805E7
:100A80000904500070880878889868050B02705037
:100A90007000708808788898680A07067B808C4008
:100AA00038404FC088008C407380050A06708880EB
:100AB00080808870201070050A03402000708888AC
:100AC000F8808870050A03102000708888F88088F4
:100AD00070050A03304800708888F880887005091E
:100AE000045000708888F8808870020A03804000F3
:100AF00040404040404040020A03408000808080E7
:100B000080808080040A0360900040404040404064
:100B100040030904A00040404040404040060A0312
:100B2000283048384C8484844830050A0328500013
:100B3000B0C88888888888050A03402000708888A3
:100B400088888870050A0310200070888888888843
:100B500070050A0330480070888888888870050A04
:100B60000328500070888888888870050904500020
:100B7000708888888888700705061000FE001005B8
:100B80000706689098A8C848B0050A034020008866
:100B9000888888888878050A0310200088888888D3
:100BA000888878050A03304800888888888888788B
:100BB000050904500088888888888878050D031006
:100BC0002000888850505020202020C0050D038030
:100BD0008080E09088888890E0808080050C0450B8
:100BE00000888850505020202020C0005107A007C6
:100BF000AA0B0D0E880E240FE51011241FBECFEF97
:100C0000D8E0DEBFCDBF11E0A0E0B1E0E0E9F6E260
:100C100002C005900D92A038B107D9F715E0A0E801
:100C2000B1E001C01D92A034B107E1F71BE0CAEFAB
:100C3000DBE004C02297FE010E944213CC3ED107A4
:100C4000C9F70E9436060C9446130C94000083B733
:100C5000817F83BFF89483B7816083BF7894889540
:100C600083B78E7F83BF7894F2CF0895CF92DF92BF
:100C7000EF92FF920F931F93CF93DF930E94150A79
:100C8000C0E8D1E0CE0169E971E040E051E021E047
:100C900001E217E07E010E94930829E9C22E22E0BA
:100CA000D22EC60162EB72E040E051E020E007E2A4
:100CB00016E0EE24FF240E949308CE010E946D09E5
:100CC000C6010E946D09C8EBD3E080E091E09093EB
:100CD000B9038093B803CE0106970E94B211BE01FA
:100CE000645070408DE294E00E942B080E94220A1A
:100CF00080E090E0DF91CF911F910F91FF90EF90F6
:100D0000DF90CF900895AF92BF92CF92DF92EF9293
:100D1000FF920F931F93CF93DF935C01DC01129638
:100D20008C911297681BC0E0D0E040E01AC024917B
:100D30008A0F9B1FFC01849130E0295F3F4F53E0F5
:100D4000369527955A95E1F7E82FF0E02E9FC001E0
:100D50002F9F900D3E9F900D11240396C80FD91F11
:100D60004F5FD50116968D919C911797DE011196D4
:100D7000FC01EC0FFD1F4617D1F6C490FC01EA0FF1
:100D8000FB1FD4902396FC01EC0FFD1FE49010E0B4
:100D900041C0FF2059F42196D5011696ED91FC91A2
:100DA0001797EC0FFD1FE49040E8F42E8E2D8F2155
:100DB00059F082EB93E061E070E049E051E00E947D
:100DC000EE110097B1F30AC082EB93E061E070E0AE
:100DD0004BE051E00E94EE110097B1F3F6940F5FE3
:100DE00003C030E8F32E00E00C1599F682EB93E097
:100DF00061E070E04DE051E00E94EE110097B1F328
:100E00002196D5011696ED91FC911797EC0FFD1FD9
:100E1000E4901F5F1D1529F782EB93E061E070E01D
:100E20004DE051E00E94EE110097B1F3DF91CF91B8
:100E30001F910F91FF90EF90DF90CF90BF90AF90F8
:100E4000089580E091E060E270E04DEC53E020E432
:100E500030E00DEE13E00E947B1082EB93E00E94E5
:100E6000F71087E791E06DE40E94830687E791E041
:100E700061E60E94830687E791E062E70E948306AD
:100E800087E791E06BE60E94830687E791E063E3E2
:100E90000E94830668EE73E080E090E00E94EA081A
:100EA000E0CF85E691E09093B3038093B203089579
:100EB0002FE031E0FC0137832683089580E0089518
:100EC00080E0089580E090E0089580E090E008954B
:100ED00080E090E008958FE091E090933A04809351
:100EE00039048DE294E065E374E00E942B080895D4
:100EF000CF93DF93E0912F04F09130043097B9F451
:100F0000E0E0F0E015C0DC01C681D7813D913323DC
:100F100031F02991222331F03217C1F303C0288127
:100F2000222351F00280F381E02D309719F032979F
:100F3000309749F7E3E3F4E0CF01DF91CF910895D3
:100F40008DE291E090932E0480932D041092300452
:100F500010922F0410923204109231048DE191E02E
:100F600090933404809333040895CF93DF939C01CE
:100F7000FB01A281B381109729F0808191811196A4
:100F80009C938E93C081D181209711F0BB83AA835B
:100F9000D90112968D919C911397E817F90721F4C6
:100FA0001396DC93CE931297D90114968D919C9150
:100FB0001597E817F90731F48281938115969C9370
:100FC0008E9314971182108213821282DF91CF9137
:100FD0000895CF93DF93DC01FB0112962D913C9194
:100FE00013976217730781F414968D919C9115974E
:100FF0006817790749F413961C921E92129715965A
:101000001C921E92149724C0608171818281938109
:10101000EB019B838A8342815381EA017983688350
:10102000E217F30731F48081918113969C938E939C
:10103000129714968D919C911597E817F90721F452
:1010400015965C934E93149711821082138212822C
:10105000DF91CF910895CF93DF93FC01DB01828173
:101060009381009761F4738362837583648313961D
:101070001C921E92129711961C921E920DC0C48152
:10108000D581798368831396DC93CE93129711965A
:101090001C921E9275836483DF91CF910895CF9344
:1010A000DF93FC01DB01228133812115310561F4DD
:1010B000738362837583648313967C936E93129714
:1010C00011967C936E9311C084819581EC01798394
:1010D000688313969C938E93129711963C932E934C
:1010E00075836483F90173836283DF91CF910895DF
:1010F000FC0111821082138212820895FC01A281E8
:10110000B381109759F08D919C9193838283A48130
:10111000B5818D919C911197958384830895CB011E
:101120000E94860F0895CF92DF92EF92FF920F9365
:101130001F93CF93DF930F92CDB7DEB76C01CB0136
:1011400030913B04F60134873F5F30933B04778353
:101150006683840F951F0197958384835187408709
:1011600084E090E09387828725872687108B078706
:10117000F28AE18A148A138AC6010E94B90B8FB7DA
:101180008983F894F601258530E0C901A3E0880F32
:10119000991FAA95E1F7820F931F88559B4F908F57
:1011A000878B80EF94E0968B858BE091F004F09133
:1011B000F1040190F081E02DB601099589818FBF7E
:1011C0000F90DF91CF911F910F91FF90EF90DF90E3
:1011D000CF900895CF92DF92EF92FF920F931F93DB
:1011E000CF93DF93CDB7DEB7A1970FB6F894DEBFEC
:1011F0000FBECDBF6B017C011E8A1F8A188E198E0F
:101200001A8E1B8E1C8E1D8E1B8A1C821B821E82B8
:101210001D828DE391E09A8389831F821986188647
:101220008E010F5F1F4FC80160E070E041E050E0A9
:101230000E947F0FCE010F96B701A6010E94570BA7
:101240008FE898E09D8B8C8B19A308A381E08B8B92
:101250008CE394E0BE01615F7F4F0E942C0AC801BD
:101260000E941910A1960FB6F894DEBF0FBECDBF35
:10127000DF91CF911F910F91FF90EF90DF90CF9072
:1012800008958091F904813011F40E94D20C0895E0
:10129000CF93DF930F92CDB7DEB78FB78983F894E2
:1012A0000E94C40E2091FA043091FB048091FC044A
:1012B0009091FD042817390751F00E94720E809119
:1012C000FC049091FD040E94560E0E944109898100
:1012D0008FBF0F90DF91CF9108950F931F93CF93FE
:1012E000DF930F92CDB7DEB78C018FB78983F89467
:1012F000E091F004F091F1040280F381E02D80EFA1
:1013000094E0B8010995C8010E94EE0ED8011D961F
:101310004C911D97242F30E0C90153E0880F991F8D
:101320005A95E1F7820F931F88559B4F58969C93CF
:101330008E93579756969C938E935597E091FA0407
:10134000F091FB048685481728F00E94720EC801B0
:101350000E94560EE091FA04F091FB04D8011D960C
:101360009C911D978585891710F40E9448098981F1
:101370008FBF0F90DF91CF911F910F910895CF9361
:10138000DF93EC010E944F088A819B81009779F0DE
:10139000EF81F885309759F081E090E00E8002C02F
:1013A000880F991F0A94E2F79081982B9083DF9120
:1013B000CF910895CF93DF93EC010E94E9078A81D2
:1013C0009B81009781F4EF81F885309761F081E08F
:1013D00090E00E8002C0880F991F0A94E2F7809572
:1013E000908198239083DF91CF910895FC016683CB
:1013F0000895FC01708767830895DC011296ED91D2
:10140000FC91139714962D913C911597CF0140E0D4
:101410005585541710F0452FCF01E217F30721F03F
:101420000190F081E02DF4CF08950E949B0E0E9460
:101430006B078CE394E00E94250A0E94BB0D0E947A
:10144000680D08950E94FC0B0895FC011286168217
:101450001782108611860895CF92DF92EF92FF9245
:101460000F931F93CF93DF930F92CDB7DEB76C012D
:101470007B018FB78983F894F60102811381CB0138
:101480000E947808C601B7010E942B08F7018781E6
:101490009085A185B28583879487A587B687011536
:1014A0001105D1F00E942F0DF701078110852185CC
:1014B0003285601B710B820B930B161617061806EC
:1014C0001906ACF40E941F0DDC01CB01F6018683E6
:1014D0009783A087B1870BC0F60186839783A08787
:1014E000B187BC01CD010E944D0D0E94D90CF701BE
:1014F00084818260848389818FBF0F90DF91CF9137
:101500001F910F91FF90EF90DF90CF9008950F9370
:101510001F93CF93DF930F92CDB7DEB78C018FB7B8
:101520008983F894C8010E94B507F80182819381EC
:10153000009711F40E94E90C89818FBF0F90DF9111
:10154000CF911F910F910895CF92DF92EF92FF926A
:101550000F931F93CF93DF938C010E94610DD801ED
:101560001296ED91FC9113978FEFC82E8FEFD82E26
:101570008FEFE82E8FE7F82E3DC0248121FF37C082
:101580004385548565857685E8018E819F81A88590
:10159000B98584179507A607B707D0F0822F846016
:1015A000848380FF05C0822F8C608D7F84831FC061
:1015B00087819085A185B28583879487A587B68723
:1015C0008C159D05AE05BF0590F46C017D010FC023
:1015D000481B590B6A0B7B0B4387548765877687BB
:1015E0004C155D056E057F0510F46A017B010190C5
:1015F000F081E02D309709F6F801C281D3811CC03B
:101600008C8182FF0EC069897A89ED81FE818F8588
:10161000988909958C818B7F8C8380FF02C0BE01E5
:1016200002C060E070E00990D881C02D611571059D
:1016300019F0C8010E94870A209711F70E94470DF0
:10164000DC01CB018C159D05AE05BF0530F0E8012E
:101650008E839F83A887B98782CFDFEFCD16DFEF18
:10166000DD06DFEFED06DFE7FD0618F00E94E90C6E
:101670000FC0C80ED91EEA1EFB1EC701B6010E948C
:101680004D0DDC01CB01F80186839783A087B187DC
:10169000DF91CF911F910F91FF90EF90DF90CF904E
:1016A0000895BC018CE394E00E94870A08950F938B
:1016B0001F93CF93DF93EC01CB01BA0121E732E016
:1016C00040E050E00E94FF126B5F7F4F8F4F9F4FB3
:1016D0002AE030E040E050E00E941E1389019A01A8
:1016E00009501040204030400F83188729873A87DF
:1016F000DF91CF911F910F910895CF92DF92EF92DA
:10170000FF920F931F93CF936C01C62FBA01A901CB
:101710000E94570BF60116830583F28AE18ACC23D7
:1017200019F481E0848302C0F60114828091FA04E6
:101730009091FB04F601908B87878CE394E0B601CF
:101740000E942C0ACF911F910F91FF90EF90DF9094
:10175000CF90089510923F0410923E0410924104DD
:101760001092400485E491E090933D0480933C0402
:101770000895CF93DF93EC015F854889EC81FD816B
:1017800020E030E06FEF07C0AE81BF81A20FB31F32
:101790006C932F5F3F4F8885998528173907A0F3F1
:1017A0005083DF0111974C93DF0112971C92DF01E8
:1017B000139780E88C93DF0114971C92DF01159733
:1017C00082E08C9311978F5F8831D9F7DF015B97A7
:1017D00089898C93DF015C978A898C93DF015D97FF
:1017E0008AE18C9311978F5F8032D9F7B397FD838D
:1017F000EC83DF91CF9108950E94C70C0E94D50C15
:1018000081E08093F9040E94C40E8091FC049091C1
:10181000FD049093FB048093FA040E94D90C0E946B
:10182000CF0CA091FA04B091FB041496CD91CDBFDA
:10183000DD91DEBFFF91EF91DF91CF91BF91AF912D
:101840009F918F917F916F915F914F913F912F91D8
:101850001F910F91FF90EF90DF90CF90BF90AF90CE
:101860009F908F907F906F905F904F903F902F90C0
:101870001F900F900FBE0F90189508950F920FB6FE
:10188000F8940F921F9211242F923F924F925F92E1
:101890006F927F928F929F92AF92BF92CF92DF9280
:1018A000EF92FF920F931F932F933F934F935F936A
:1018B0006F937F938F939F93AF93BF93CF93DF9358
:1018C000EF93FF93A091FA04B091FB0414960DB628
:1018D0000D920EB60D928091FC049091FD049093B0
:1018E000FB048093FA04A091FA04B091FB041496CF
:1018F000CD91CDBFDD91DEBFFF91EF91DF91CF9113
:10190000BF91AF919F918F917F916F915F914F9117
:101910003F912F911F910F91FF90EF90DF90CF900B
:10192000BF90AF909F908F907F906F905F904F90FF
:101930003F902F901F900F900FBE0F9018951F9201
:101940000F920FB60F9211242F933F934F935F93F3
:101950006F937F938F939F93AF93BF93EF93FF9377
:101960008CE394E00E94A40A0E947F0EFF91EF9105
:10197000BF91AF919F918F917F916F915F914F91A7
:101980003F912F910F900FBE0F901F9018955A986E
:10199000529AE9E6F0E08081836080830895E098C0
:1019A000E89A08955A985A9A08958CE08093810095
:1019B00008951092850010928400B198EFE6F0E04F
:1019C000808182608083E1E8F0E0808184608083B0
:1019D0000895B198EFE6F0E080818D7F8083E1E8A3
:1019E000F0E080818B7F80831092850010928400CC
:1019F00010928900109288000895CF93DF9300D051
:101A000000D0CDB7DEB780918400909185009C8393
:101A10008B8380918400909185009A8389832B81A8
:101A20003C8189819A812817390769F78B819C81CC
:101A30000F900F900F900F90DF91CF910895AB0111
:101A4000BC01E8E8F0E080819181841B950B9183D3
:101A5000808380819181BC0180E090E008950F93A4
:101A60001F930E94FD0C009188001091890080173F
:101A7000910728F4081B190B20E030E003C000E0B8
:101A800010E09801B801C9011F910F9108950E94BB
:101A9000FD0CBC0180E090E00895DC01CB018030BA
:101AA00020E0920721E0A20720E0B20710F08FEFBC
:101AB0009FEF9093890080938800BC0180E090E0C4
:101AC00008958FEF9FEF9093890080938800089589
:101AD00014BC15BC15BA10926E00109247041092F7
:101AE00048041092490410924A040895CF93DF935A
:101AF0000F92CDB7DEB78FB78983F89480914704F2
:101B000090914804A0914904B0914A040196A11D06
:101B1000B11D8093470490934804A0934904B09367
:101B20004A0489818FBF0F90DF91CF9108951F9252
:101B30000F920FB60F9211242F933F934F935F9301
:101B40006F937F938F939F93AF93BF93EF93FF9385
:101B50000E94760DFF91EF91BF91AF919F918F9170
:101B60007F916F915F914F913F912F910F900FBE99
:101B70000F901F901895CF93DF93C0E0D0E0BE0187
:101B800083E0660F771F8A95E1F76F5A7B4FFB0161
:101B900015821482178216828BE494E00E942B082F
:101BA0002196C830D10559F7DF91CF9108950F9351
:101BB0001F93CF93DF930F92CDB7DEB78FB7898393
:101BC000F89400914D0410914E048BE494E0B80118
:101BD0000E94B50789818FBFC8010F90DF91CF9117
:101BE0001F910F9108950F931F93CF93DF930F923F
:101BF000CDB7DEB78C018FB78983F894C8010E96F4
:101C00000E942B08C8010E94860F89818FBF0F9008
:101C1000DF91CF911F910F9108958DE291E0909304
:101C20004C0480934B0410924E0410924D04109279
:101C3000500410924F040895FC01A091FA04B09151
:101C4000FB0495851D968C911D97981778F08589D2
:101C50009689FC01428153812481358142175307C3
:101C600029F021E02093A5040E947E080895CF93D7
:101C7000DF93EC014A855B8560E070E082E994E0E7
:101C80000E94570B81E0809396041092A404109256
:101C9000A3048CE19EE09093980480939704D093E2
:101CA000A204C093A104DF91CF91089520919104E3
:101CB0002223B9F4DC015596ED91FC9156972281CF
:101CC0003381448155812417350759F00E94370E1E
:101CD0008CE394E062E974E00E942C0A81E0809336
:101CE0009104089580919104882341F08CE394E05D
:101CF00062E974E00E94870A10929104089580912D
:101D0000A504882321F00E9448091092A504089593
:101D10001092990410929A0410929B0410929C04C1
:101D200010929D0410929E0410929F041092A004A1
:101D30001092960408950F931F93CF93DF93109200
:101D4000A70400E010E0E80183E0CC0FDD1F8A95D6
:101D5000E1F7C00FD11FC855DB4FCE01602F0E94A5
:101D6000F609CE0167EA74E00E94F9090F5F1F4F80
:101D70000830110541F78091A7048093A604DF91F4
:101D8000CF911F910F9108952091A704E22FF0E0C9
:101D9000DF0144E0B595A7954A95E1F7A75BBE4FF3
:101DA0008C918F3F31F4EF70F070E75BFE4F8081D4
:101DB00001C08C5F90E0FC0133E0EE0FFF1F3A950D
:101DC000E1F7E80FF91FE855FB4F8281938190936B
:101DD000FD048093FC042093A6040895BC01DC015B
:101DE0001D962C9130E0C90153E0880F991F5A9538
:101DF000E1F7820F931F88559B4FDC01ED91FC9119
:101E00000190F081E02D09958091A7048093A604AC
:101E10000895BC01DC011D962C9130E0C901E3E07E
:101E2000880F991FEA95E1F7820F931F88559B4F02
:101E3000DC01ED91FC910280F381E02D0995809108
:101E4000A7048093A60408951092F3041092F2045C
:101E50001092F5041092F404E0EFF4E08DE391E0C9
:101E60009093F1048093F004168210861782E8EABA
:101E7000F4E0282F892F1382128215821482208386
:101E80008183168210861782399694E0E03FF90725
:101E900091F70895CF93DF93EC01CB0121E0FB0193
:101EA0002587BE010E943310E091FA04F091FB04F3
:101EB0009D858585891710F40E944809DF91CF918F
:101EC00008950F931F93CF93DF93EC010E94FD09B8
:101ED0008C01CE01B8010E943310E091FA04F09118
:101EE000FB0481E0D8011D962C911D9795859217D2
:101EF00008F080E0DF91CF911F910F910895FC01D0
:101F0000728761875487438715860895CF93DF933F
:101F10000F92CDB7DEB7FC018FB78983F894828129
:101F20009381009759F481859285238534858217A2
:101F3000930740F401969287818704C0CF010E94E5
:101F4000610F01C080E099819FBF882311F00E943A
:101F500048090F90DF91CF9108956F927F928F92F1
:101F60009F92AF92BF92CF92DF92EF92FF920F9328
:101F70001F93CF93DF93CDB7DEB764970FB6F89476
:101F8000DEBF0FBECDBF6C014A015B0119861A8608
:101F90001B861C861D861E861F86188A1E82FC01D3
:101FA00015868FB78983F8946090FA047090FB04CB
:101FB00081859285009721F001979287818715C0CE
:101FC000411551056105710551F0CE01029660E0A1
:101FD000A50194010AE41FE076010E947D0BC60171
:101FE000B3010E941F100E94480989818FBF81148C
:101FF0009104A104B10421F0CE0102960E94510B7C
:10200000F601958581E0892764960FB6F894DEBFC6
:102010000FBECDBFDF91CF911F910F91FF90EF9039
:10202000DF90CF90BF90AF909F908F907F906F90F8
:10203000089540E050E0BA010E94AD0F08950F935B
:102040001F93CF93DF938C01EB01CB010E94090F0B
:10205000C801BE010E94BF090D8B1E8BDF91CF917D
:102060001F910F910895CF93DF93EB018D899E8986
:10207000DC01ED91FC910280F381E02D0995CE0108
:102080000E94EE0E8F89988D9E8B8D8BDF91CF9164
:102090000895EF92FF920F931F93CF93DF938C01DC
:1020A0000E94D70DEC010097F9F0D801ED91FC9159
:1020B0000284F385E02DC80166E870E040E050E05E
:1020C00020E030E000E010E0EE24FF2409958DE0F0
:1020D00090ED9F838E831D821C8280913C059091A0
:1020E0003D05BE010E94F30DDF91CF911F910F912D
:1020F000FF90EF900895AF92BF92CF92DF92EF9250
:10210000FF920F931F93CF93DF930F92CDB7DEB75C
:102110005B016A0179010E94780790931B05809307
:102120001A0510923D0510923C059093FF04809390
:10213000FE0480E095E060E070E041E050E00E9445
:102140007F0F80911A0590911B05DC01ED91FC91A8
:102150000284F385E02D61E870E0A6019501099500
:1021600080911A0590911B05DC01ED91FC91028490
:10217000F385E02D63E870E049E450E120E030E0D1
:1021800000E010E0EE24FF24099580EC8983809123
:102190001A0590911B05DC01ED91FC910284F385F9
:1021A000E02D62E870E0AE014F5F5F4F21E030E06C
:1021B00009950F90DF91CF911F910F91FF90EF90B4
:1021C000DF90CF90BF90AF900895109203051092CA
:1021D00002051092050510920405E2E0F5E08DE39A
:1021E00091E0929382931682108617820895E1EC13
:1021F000F0E02081286120832081206C208390934F
:102200003F0580933E0580E00895E1ECF0E0808199
:10221000877E808380818F73808380E008950F9311
:102220001F93CF93DF930F92CDB7DEB7DC018B0105
:1022300060E020E030E080E090E02EC07FB779835E
:10224000F8941D967C911D971C96EC911C977E1717
:10225000E9F05096ED91FC915197E70FF11D7081D7
:10226000FA01E80FF91F70831D967C911D977F5F1F
:102270001D967C931D971B96EC911B977E1718F06B
:102280001D961C921D972F5F3F4F01C061E0798121
:102290007FBF613021F001968017910779F6C9015F
:1022A0000F90DF91CF911F910F910895FC01248928
:1022B00035894689578960E472E48FE090E00E9496
:1022C0001E1321503040E1ECF0E08081108210922A
:1022D000C0003093C5002093C40080830895EF921E
:1022E0000F931F93FC01DA01633839F1643838F435
:1022F0006138C9F06238F0F4603871F507C06538AC
:1023000011F16538E8F0663839F521C08D919D915D
:102310000D90BC91A02D848B958BA68BB78BCF0194
:102320000E94561119C0518B408B138B028B23874F
:10233000E08612C08C91808F0FC0528F418F0CC0ED
:102340008C91878709C08091C100806103C0809112
:10235000C1008F7E8093C10080E090E01F910F91BB
:10236000EF900895FC011186128614861586178653
:102370008AE0808F128E118E168640E051EE60E06A
:1023800070E0448B558B668B778B1092C000109257
:10239000C100CF010E94561186E08093C2000895CB
:1023A000CF93DF930F92CDB7DEB7FC018FB7898350
:1023B000F8948285A289B389A80FB11D8C9180936E
:1023C000C60082858F5F9085891708F080E082873C
:1023D00089818FBF0F90DF91CF910895CF92DF92C7
:1023E000EF92FF920F931F93CF93DF930F92CDB78E
:1023F000DEB7DC016B017A0119965C9119971A9688
:102400006C911A9730E000E010E080E090E02AC084
:102410002FB72983F89419964C911997242F2F5F81
:1024200018967C911897271708F020E01A967C914F
:102430001A97271789F0F701E80FF91F7081529654
:10244000ED91FC915397E40FF11D708319962C9335
:1024500019970F5F1F4F01C031E029812FBF313025
:1024600021F001968C159D0599F6561761F48FB7EA
:102470008983F8948091C00085FF03C0CD010E943C
:10248000D01189818FBFC8010F90DF91CF911F912B
:102490000F91FF90EF90DF90CF9008950F931F93CF
:1024A000CF93DF930F92CDB7DEB78C019091C6002A
:1024B0009983D8011C962C911C97822F8F5F1B96B5
:1024C0003C911B97831708F080E0D8015096ED915E
:1024D000FC915197E20FF11D90831C968C931C97F1
:1024E0001D969C911D97891771F48F5F1D968C9393
:1024F0001D971B969C911B97891710F01D961C9297
:1025000081E0F8018687D8011F968C911F97882358
:1025100061F0ED91FC910084F185E02DC80161E04E
:1025200070E0AE014F5F5F4F09959981F801808D92
:10253000981739F4018CF28DE02D309711F0C80115
:1025400009950F90DF91CF911F910F9108951F92E0
:102550000F920FB60F9211242F933F934F935F93D7
:102560006F937F938F939F93AF93BF93EF93FF935B
:1025700080913E0590913F050E944E12FF91EF9190
:10258000BF91AF919F918F917F916F915F914F918B
:102590003F912F910F900FBE0F901F901895FC0147
:1025A00031852285321711F00E94D01108951F92B3
:1025B0000F920FB60F9211242F933F934F935F9377
:1025C0006F937F938F939F93AF93BF93EF93FF93FB
:1025D00080913E0590913F050E94CF12FF91EF91AF
:1025E000BF91AF919F918F917F916F915F914F912B
:1025F0003F912F910F900FBE0F901F901895629FE3
:10260000D001739FF001829FE00DF11D649FE00DEA
:10261000F11D929FF00D839FF00D749FF00D659F4B
:10262000F00D9927729FB00DE11DF91F639FB00D4A
:10263000E11DF91FBD01CF0111240895A1E21A2E59
:10264000AA1BBB1BFD010DC0AA1FBB1FEE1FFF1F56
:10265000A217B307E407F50720F0A21BB30BE40BA6
:10266000F50B661F771F881F991F1A9469F76095ED
:102670007095809590959B01AC01BD01CF010895A7
:10268000EE0FFF1F0590F491E02D0994F894FFCF11
:102690002F6465762F74747900580020000A002F8B
:1026A0006465762F6E756C6C000000000058075E44
:1026B000076007620765076807000000002B08B580
:1026C00007000000004F08E90700000000BF09DA1A
:1026D00009000000002B08B507FF000101020202FB
:1026E0000203030303030303030000000035063560
:1026F0000600000000B211F71005110F11EE116F66
:1027000011417269616C000A0000FF7101680000EC
:00000001FF
