:100000000C943A000C9403120C9462000C9462005D
:100010000C9462000C9462000C9462000C946200D8
:100020000C9462000C9462000C9462000C946412B4
:100030000C9462000C9462000C9462000C946200B8
:100040000C945C130C9462000C94D9150C9462000F
:100050000C9409160C9462000C9462000C946200DB
:100060000C9462000C946200E308A209460BDE0CBB
:100070006F11161411241FBECFEFD8E0DEBFCDBF25
:1000800011E0A0E0B1E0ECE4FDE202C005900D92C9
:10009000AE3BB107D9F718E0AEEBB1E001C01D925D
:1000A000A637B107E1F710E0C4E7D0E004C022971B
:1000B000FE010E94A016C836D107C9F70E94E901C7
:1000C0000C94A4160C94000083B7817F83BFF8942E
:1000D00083B7816083BF7894889583B78E7F83BF11
:1000E0007894F2CF8AEA8093BE01FDCFFC01408173
:1000F0005181628173814F5F5F4F6F4F7F4F4083AC
:10010000518362837383F3CF8091BE018F5F8093AD
:10011000BE010895CF92DF92EF92FF920F931F934B
:10012000CF93DF937C018B016A01C0E0D0E010C067
:10013000D701ED91FC91B8016C1B7D0BA6014C0F12
:100140005D1F0084F185E02DC7010995C80FD91FF7
:10015000C017D10768F3DF91CF911F910F91FF90E6
:10016000EF90DF90CF9008950F931F93CF93DF937D
:100170008C010E94C00AEC011D821C821F821E821B
:100180006AE070E080E090E00E94340EC801BE0199
:100190000E942C0B80914B0890914C080E940F0FED
:1001A000DF91CF911F910F910895CF93DF938DED44
:1001B00095E00E94E30AEC018E819F8181319105D7
:1001C00021F082E494E00E944E16CE010E94AD0A16
:1001D0000E94C00ABC0182E290E0FB019783868303
:1001E00089EC95E00E942C0B8DED95E00E94E30ACE
:1001F000EC018E819F818A3A910521F082E494E09E
:100200000E944E16CE010E94AD0A8DED95E00E942F
:10021000E30AEC018E819F818B3B910521F082E402
:1002200094E00E944E16CE010E94AD0A8DED95E03D
:100230000E94E30AEC018E819F818C3C910521F0A4
:1002400082E494E00E944E16CE010E94AD0A0E9404
:10025000C00ABC018DED90E0FB019783868389EC99
:1002600095E00E942C0B0E94C00ABC018EEE90E02B
:10027000FB019783868389EC95E00E942C0B0E94FA
:10028000C00ABC018FEF90E0FB019783868389EC65
:1002900095E00E942C0B80914B0890914C080E9495
:1002A0000F0FDF91CF910895CF93DF93EC010E9460
:1002B000210C64E170E080E090E00E94340ECE01F9
:1002C0000E94270C80914B0890914C080E940F0FC0
:1002D000DF91CF910895CF93DF93EC010E94210C21
:1002E0006AE070E080E090E00E94340ECE010E944F
:1002F000270C80914B0890914C080E940F0FDF91C2
:10030000CF910895CF93DF93EC010E94210C80914F
:10031000BE018C3D21F080E394E00E944E168CEAF1
:100320008093BE01CE010E94270C80914B089091D2
:100330004C080E940F0FDF91CF910895CF93DF9368
:10034000EC016AE070E080E090E00E94340ECE01A3
:100350000E94400D80914B0890914C080E940F0F15
:10036000DF91CF910895CF93DF93EC010E94D30DDD
:100370008091BE01823121F087E294E00E944E1606
:1003800081E28093BE01CE010E94D30D8091BE0117
:10039000823321F087E294E00E944E1683E280933C
:1003A000BE01CE010E94D30D8091BE01853421F0A3
:1003B00087E294E00E944E1684E58093BE0180910E
:1003C0004B0890914C080E940F0FDF91CF91089538
:1003D0000895CF92DF92EF92FF920F931F93CF93E6
:1003E000DF930E94DA0FCFEBD1E0CE0168ED71E030
:1003F00040E051E021E005EF17E0EE24FF240E94E9
:10040000DD0D28EDC22E22E0D22EC60161EF72E092
:1004100040E051E020E004E610E00E94DD0DCE0156
:100420000E94320FC6010E94320FC7EFD3E080E076
:1004300091E09093F8038093F703CE0106970E9412
:10044000E414BE016450704083EA97E00E942D0AD4
:100450000E94E70F80E090E0DF91CF911F910F9114
:10046000FF90EF90DF90CF900895FC0120E030E006
:1004700002C02F5F3F4F81918823D9F7C9010895AA
:10048000EF92FF920F931F93CF93DF93EC0180E0E5
:1004900091E00E947A098C01E880F980C7010E94EE
:1004A0003502BC01C801A7010E948A008C81882303
:1004B00019F0C9E0D1E002C0CEE0D1E0C80162E0AD
:1004C00070E043E151E00E948A00C80164E070E0FE
:1004D000AE010E948A00C80161E070E046E151E08F
:1004E0000E948A00DF91CF911F910F91FF90EF90B2
:1004F00008954F925F926F927F928F929F92AF92E8
:10050000BF92CF92DF92EF92FF920F931F93CF9300
:10051000DF934B015C01EA01E1E0CE2ED12CE12C0E
:10052000F12C6AE070E080E090E00BC00894C11C00
:10053000D11CE11CF11C2AE030E040E050E00E94B8
:100540005D16681579058A059B0580F3FE01EC0DA3
:10055000FD1D10820894C108D108E108F1083AE0B5
:10056000432E512C612C712C13C08E010C0D1D1DBE
:10057000C501B401A30192010E947C16605DF801DF
:10058000608349015A010894C108D108E108F108C3
:10059000FFEFCF16FFEFDF06FFEFEF06FFEFFF06DF
:1005A00021F7DF91CF911F910F91FF90EF90DF9096
:1005B000CF90BF90AF909F908F907F906F905F9003
:1005C0004F900895EF92FF920F931F9384E994E068
:1005D00060E070E041E050E00E94390D81E08093DE
:1005E000290482EA94E06BEB74E040E051E022E001
:1005F00003EB11E0F4E9EF2EF4E0FF2E0E94DD0D95
:1006000082EA94E00E94320F0E94EA0E82E1809317
:10061000BE01C7010E94400D8091BE01813221F0D0
:1006200087E294E00E944E1682E38093BE0184E943
:1006300094E00E94400D8091BE01833221F087E258
:1006400094E00E944E1685E48093BE0184E994E014
:100650000E94400D8091BE01843529F087E294E02C
:100660000E944E1604C087E294E00E9439161F9142
:100670000F91FF90EF900895EF92FF920F931F93C9
:10068000CF93DF93CDB7DEB72E970FB6F894DEBFCA
:100690000FBECDBF1C821B821E821D8282EA91E0AA
:1006A0009A8389831F821986188680914B089091BE
:1006B0004C0863E00E94A30ECE01019660E070E05A
:1006C00041E050E00E94390D81E080934D0482EAC0
:1006D00094E06BEB74E040E051E022E00EE911E0C1
:1006E0007E010894E11CF11C0E94DD0D82EA94E079
:1006F0000E94320FC7014FE050E060E070E00E94BE
:10070000670D8E85882329F08BE494E00E944E16B5
:1007100004C08BE494E00E943916CE01019660E09B
:1007200070E041E050E00E94390D81E080934D047B
:10073000CE0101964FE050E060E070E00E94670D4E
:100740008E85882329F08BE494E00E94391604C03A
:100750008BE494E00E944E1680914B0890914C08D7
:1007600061E00E94A30E2E960FB6F894DEBF0FBE76
:10077000CDBFDF91CF911F910F91FF90EF90089522
:10078000EF92FF920F931F9381E080933B0480913F
:100790004B0890914C0863E00E94A30E1092BE019A
:1007A00082EA94E06BEB74E040E051E022E002E783
:1007B00010E0EE24FF240E94DD0D82EA94E00E9406
:1007C000320F65E070E080E090E00E94340E80918E
:1007D000BE018A3A29F089E394E00E944E1604C0D3
:1007E00089E394E00E94391682EA94E00E940F0F98
:1007F00080914B0890914C0861E00E94A30E1F91DC
:100800000F91FF90EF900895EF92FF920F931F9337
:100810008BEB95E00E948C0B81E08093320480E1A9
:100820008093BE018BEB95E00E94210C82EA94E05C
:100830006BEB74E040E051E022E002E811E03BEBBA
:10084000E32E35E0F32E0E94DD0D82EA94E00E9453
:10085000320F8CED8093BE01C7010E94270C80915E
:10086000BE018C3A29F080E394E00E944E1604C049
:1008700080E394E00E9439168BEB95E00E948C0B8C
:1008800081E08093320482EA94E06BEB74E040E014
:1008900051E022E00BE611E0BBEBEB2EB5E0FB2EC6
:1008A0000E94DD0D82EA94E00E94320FC7014FE002
:1008B00050E060E070E00E94930B882329F480E30D
:1008C00094E00E944E1604C080E394E00E94391622
:1008D00082EA94E06BEB74E040E051E022E004E552
:1008E00011E0ABEBEA2EA5E0FA2E0E94DD0D82EAC4
:1008F00094E00E94320FC7014FE050E060E070E0EA
:100900000E94930B882329F080E394E00E944E1606
:1009100004C080E394E00E9439161F910F91FF906C
:10092000EF900895EF92FF920F931F93CF93DF9371
:1009300081E08093440482EA94E06BEB74E040E051
:1009400051E022E004EB10E0E9ECEE2EE5E0FE2EB3
:100950000E94DD0D82EA94E00E94320FC7014FE051
:1009600050E060E070E00E94050BEC0182E494E04E
:10097000209719F40E944E1605C00E943916CE0128
:100980000E94AD0A81E08093440489EC95E04AE03E
:1009900050E060E070E00E94050BEC0182E494E01E
:1009A000209731F00E944E16CE010E94AD0A02C07F
:1009B0000E943916DF91CF911F910F91FF90EF9018
:1009C0000895EF92FF920F931F93CF93DF9381E0EF
:1009D0008093440489EC95E00E94DC0A8DED95E05B
:1009E0000E94DC0A0E94C00AEC0182EA94E06BEBF0
:1009F00074E040E051E022E005ED10E0EE24FF2439
:100A00000E94DD0D82EA94E00E94320F0E94EA0EFD
:100A100081E190E09F838E831D821C828DED95E0A5
:100A2000BE010E942C0B89EC95E00E94E30AEC01C8
:100A30008E819F818232910521F082E494E00E94B0
:100A40004E16CE010E94AD0A0E94C00ABC018AEA7D
:100A500090E0FB01978386838DED95E00E942C0B3F
:100A60000E94C00ABC018BEB90E0FB019783868358
:100A70008DED95E00E942C0B0E94C00ABC018CEC0D
:100A800090E0FB01978386838DED95E00E942C0B0F
:100A900089EC95E00E94E30AEC018E819F818D3DF7
:100AA000910521F082E494E00E944E16CE010E944E
:100AB000AD0A89EC95E00E94E30AEC018E819F81EA
:100AC0008E3E910521F082E494E00E944E16CE0104
:100AD0000E94AD0A89EC95E00E94E30AEC018E8148
:100AE0009F818F3F910521F082E494E00E944E1691
:100AF000CE010E94AD0A82E494E00E943916DF9193
:100B0000CF911F910F91FF90EF900895EF92FF9278
:100B10000F931F93CF93DF93CDB7DEB72C970FB60C
:100B2000F894DEBF0FBECDBF19861A861B861C86C1
:100B30001D821E821F82188619821A821B821C82C5
:100B400081E08093200480914B0890914C0863E0F1
:100B50000E94A30E82EA94E06BEB74E040E051E067
:100B600022E006E710E039E0E32EF12CEC0EFD1E4A
:100B70000E94DD0D81EF95E06AE076E040EC50E008
:100B800022E0E5E0EE2EF12CEC0EFD1E0E94DD0DC4
:100B90008AEC96E063EE76E040EC50E022E07E01E5
:100BA0000894E11CF11C0E94DD0D82EA94E00E9491
:100BB000320F81EF95E00E94320F8AEC96E00E949E
:100BC000320F68E770E080E090E00E94340E4985C3
:100BD0005A856B857C858D819E81AF81B885841710
:100BE0009507A607B70748F489859A85AB85BC8524
:100BF0004D815E816F81788508C08D819E81AF8136
:100C0000B88549855A856B857C85841B950BA60B19
:100C1000B70B49855A856B857C8576956795579581
:100C20004795481759076A077B0720F48EE194E03F
:100C30000E944E1649855A856B857C8589819A81EB
:100C4000AB81BC8184179507A607B70748F489854F
:100C50009A85AB85BC8549815A816B817C8108C0AE
:100C600089819A81AB81BC8149855A856B857C8558
:100C7000841B950BA60BB70B49855A856B857C8524
:100C80007695679557954795481759076A077B07E3
:100C900020F48EE194E00E944E1682EA94E00E94D5
:100CA0000F0F81EF95E00E940F0F8AEC96E00E94F3
:100CB0000F0F8EE194E00E94391680914B089091BD
:100CC0004C0861E00E94A30E2C960FB6F894DEBF8C
:100CD0000FBECDBFDF91CF911F910F91FF90EF908D
:100CE0000895EF92FF920F931F93CF93DF93CDB7A9
:100CF000DEB72C970FB6F894DEBF0FBECDBF1986B6
:100D00001A861B861C861D821E821F8218861982E7
:100D10001A821B821C8281E08093170480914B0809
:100D200090914C0863E00E94A30E82EA94E06BEB82
:100D300074E040E051E022E006E710E039E0E32E05
:100D4000F12CEC0EFD1E0E94DD0D81EF95E06AE0B6
:100D500076E040EC50E022E0E5E0EE2EF12CEC0EE7
:100D6000FD1E0E94DD0D8AEC96E063EE76E040EC1D
:100D700050E022E07E010894E11CF11C0E94DD0D90
:100D80008AE090E09093AD048093AC0484E190E01D
:100D90009093FC058093FB058EE190E09093D5063F
:100DA0008093D40682EA94E00E94320F81EF95E0AE
:100DB0000E94320F8AEC96E00E94320F64EB70E0E2
:100DC00080E090E00E94340E8D819E81AF81B885D5
:100DD000B695A795979587958D839E83AF83B887A2
:100DE00069817A818B819C8123E030E040E050E092
:100DF0000E947C1629833A834B835C8349855A85FC
:100E00006B857C858D819E81AF81B8858417950720
:100E1000A607B70748F489859A85AB85BC854D81BF
:100E20005E816F81788508C08D819E81AF81B88594
:100E300049855A856B857C85841B950BA60BB70B62
:100E400049855A856B857C85769567955795479535
:100E5000481759076A077B0720F485E194E00E9450
:100E60004E1649855A856B857C8589819A81AB812F
:100E7000BC8184179507A607B70748F489859A852A
:100E8000AB85BC8549815A816B817C8108C0898191
:100E90009A81AB81BC8149855A856B857C85841B91
:100EA000950BA60BB70B49855A856B857C85769586
:100EB000679557954795481759076A077B0720F4A8
:100EC00085E194E00E944E1682EA94E00E940F0FA2
:100ED00081EF95E00E940F0F8AEC96E00E940F0FC1
:100EE00085E194E00E94391680914B0890914C085E
:100EF00061E00E94A30E2C960FB6F894DEBF0FBEE1
:100F0000CDBFDF91CF911F910F91FF90EF9008958A
:100F1000EF92FF920F931F93CF93DF93CDB7DEB77E
:100F200063970FB6F894DEBF0FBECDBF1886198643
:100F30001A861B861C861D861E861F861D8281E0E2
:100F400080930E041092BE01CE01019661E022E072
:100F500030E040E050E004E810E0EE24FF240E947E
:100F6000421163E070E080E090E00E94340E8091D6
:100F7000BE01813021F08CE094E00E944E16109268
:100F8000BE01CE0101960E941611CE01019661E0CC
:100F900021E030E040E050E004E810E0EE24FF24DF
:100FA0000E9442116AE070E080E090E00E94340EFE
:100FB0008091BE018A3020F48CE094E00E944E16AD
:100FC000CE0101960E9416118CE094E00E94391621
:100FD00063960FB6F894DEBF0FBECDBFDF91CF9101
:100FE0001F910F91FF90EF900895CF93DF93CDB7AE
:100FF000DEB764970FB6F894DEBF0FBECDBF80E0BA
:1010000091E00E947A095C0188E191E090930D04DF
:1010100080930C048EE191E0909316048093150464
:1010200086E291E090931F0480931E0489E291E090
:1010300090932804809327048DE291E090933104EB
:101040008093300483E391E090933A0480933904D1
:1010500089E391E0909343048093420481E491E01A
:1010600090934C0480934B04D501ED91FC91028444
:10107000F385E02DC50161E870E040E050E020E03C
:1010800030E004E514E0EE24FF246894E6F80995C6
:1010900080E091EEA0E0B0E089839A83AB83BC83CB
:1010A000D501ED91FC910284F385E02DC50160E846
:1010B00070E0AE014F5F5F4F20E030E000E010E0F5
:1010C000EE24FF240995D501ED91FC910284F3856E
:1010D000E02DC50166E870E040E050E020E030E03F
:1010E0000995D501ED91FC910280F381E02DC501B8
:1010F0000995D501ED91FC910084F185E02DC501A4
:1011000066E070E04AE451E00995CC24DD247601E4
:1011100081E591E00E943502BC01C50141E551E045
:101120000E948A00C701B601AE014B5F5F4F0E946B
:101130007902CE0105960E943502BC01C501AE01BF
:101140004B5F5F4F0E948A00C50161E070E046E19D
:1011500051E00E948A000894C11CD11CE11CF11CC2
:101160000E94E2020E943C030E94C0030E94040409
:101170000E94E1040E9492040E9486050E9471066A
:101180000E9488078CE094E00E94400285E194E090
:101190000E9440028EE194E00E94400287E294E0C7
:1011A0000E9440028BE494E00E94400280E394E0BD
:1011B0000E94400289E394E00E94400282E494E0AD
:1011C0000E944002A5CFCF93DF9382EB91E09093F2
:1011D000F2038093F10310929704109296041092F8
:1011E000990410929804E6E9F4E0C2EAD1E0D293BF
:1011F000C2931682108617821092BE051092BD050A
:101200001092C0051092BF05EDEBF5E0D293C293AA
:1012100016821086178287E294E00E94311689E3D5
:1012200094E00E94311680E394E00E9431161092FF
:10123000CC051092CB051092CE051092CD05EBECAB
:10124000F5E0D293C2931682108617828AE791E066
:1012500097878687118A108A138A128A1092E0056E
:101260001092DF051092E2051092E105EFEDF5E036
:10127000D293C29316821086178297878687118A27
:10128000108A138A128A82E494E00E9431168EE159
:1012900094E00E94311685E194E00E9431168CE0C2
:1012A00094E00E9431168BE494E00E943116DF91A5
:1012B000CF9108952CE531E0FC0137832683089512
:1012C00080E0089580E0089580E090E0089580E057
:1012D00090E0089580E090E008958CE591E090938F
:1012E000B0078093AF0783EA97E06BEA77E00E944C
:1012F0002D0A0895CF93DF93E091A507F091A607FB
:101300003097B9F4E0E0F0E015C0DC01C681D78188
:101310003D91332331F02991222331F03217C1F36B
:1013200003C02881222351F00280F381E02D309701
:1013300019F03297309749F7E9EAF7E0CF01DF91EA
:10134000CF9108958AE791E09093A4078093A30733
:101350001092A6071092A5071092A8071092A7074F
:101360008AE691E09093AA078093A9070895CF9306
:10137000DF939C01FB01A281B381109729F080814A
:10138000918111969C938E93C081D181209711F009
:10139000BB83AA83D90112968D919C911397E8176C
:1013A000F90721F41396DC93CE931297D901149682
:1013B0008D919C911597E817F90731F482819381FB
:1013C00015969C938E931497118210821382128229
:1013D000DF91CF910895CF93DF93DC01FB0112964B
:1013E0002D913C9113976217730781F414968D9198
:1013F0009C9115976817790749F413961C921E92D1
:10140000129715961C921E92149724C060817181C8
:1014100082819381EB019B838A8342815381EA011C
:1014200079836883E217F30731F480819181139601
:101430009C938E93129714968D919C911597E81713
:10144000F90721F415965C934E931497118210823C
:1014500013821282DF91CF910895CF93DF93FC0125
:10146000DB0182819381009761F4738362837583CA
:10147000648313961C921E92129711961C921E92D0
:101480000DC0C481D581798368831396DC93CE9394
:10149000129711961C921E9275836483DF91CF91EF
:1014A0000895CF93DF93FC01DB0122813381211565
:1014B000310561F4738362837583648313967C932F
:1014C0006E93129711967C936E9311C084819581CF
:1014D000EC017983688313969C938E9312971196EF
:1014E0003C932E9375836483F90173836283DF9148
:1014F000CF910895FC011182108213821282089507
:10150000FC01A281B381109759F08D919C91938336
:101510008283A481B5818D919C9111979583848359
:101520000895CF93DF93C0E0D0E0BE0183E0660F63
:10153000771F8A95E1F76954784FFB011582148271
:101540001782168281EB97E00E942D0A2196C830FF
:10155000D10559F7DF91CF910895CF93DF930F9283
:10156000CDB7DEB7BC018FB78983F89481EB97E0E4
:101570000E942D0A89818FBF0F90DF91CF9108952E
:101580000F931F93CF93DF930F92CDB7DEB78FB733
:101590008983F8940091B3071091B40781EB97E029
:1015A000B8010E94B70989818FBFC8010F90DF91F0
:1015B000CF911F910F91089560E070E044E650E0F4
:1015C0000E94390D0895EF92FF920F931F93CF93CE
:1015D000DF930F92CDB7DEB78C010E94D30D8FB78A
:1015E0008983F894F801E088F188C8010E96B70164
:1015F0000E94B70989818FBFC7010F90DF91CF91FA
:101600001F910F91FF90EF900895EF92FF920F932B
:101610001F93CF93DF930F92CDB7DEB77C010E946B
:10162000670D882371F08FB78983F894F7010089DB
:101630001189C7010E96B8010E94B70989818FBF31
:1016400002C000E010E0C8010F90DF91CF911F9120
:101650000F91FF90EF9008950F931F93CF93DF9317
:101660000F92CDB7DEB78C018FB78983F894C8018C
:101670000E960E942D0AC8010E94400D89818FBFDD
:101680000F90DF91CF911F910F9108958AE791E01C
:101690009093B2078093B1071092B4071092B307EA
:1016A0001092B6071092B5070895CF93DF93EC011F
:1016B000CB0121E0FB012587BE010E949413E0913C
:1016C0004B08F0914C089D858585891710F40E9480
:1016D000EA0EDF91CF9108950F931F93CF93DF937D
:1016E000EC010E94C20F8C01CE01B8010E9494133C
:1016F0001C870B87E0914B08F0914C0881E0D801E2
:101700001D962C911D979585291708F480E0DF918F
:10171000CF911F910F910895FC0181E0818712867E
:101720001486138608954F925F926F927F92AF92C4
:10173000BF92CF92DF92EF92FF920F931F93CF93BE
:10174000DF93CDB7DEB763970FB6F894DEBF0FBE59
:10175000CDBF6C012A013B01188619861A861B86AB
:101760001C861D861E861F861D82FC011586109212
:101770004A08A0904B08B0904C088185882349F016
:101780001186F5018585F6018287B486A38680E0FF
:101790002FC0411551056105710551F0CE0101962B
:1017A00060E0A301920105E51BE076010E94421171
:1017B000C601B5010E948013F5018585F601928569
:1017C0008917A8F08287028113810EC0C801F60133
:1017D00062850E948B0EF601848195810817190796
:1017E00031F0F801008111810115110579F781E0CF
:1017F00091E090934A08882311F00E94EA0E411468
:1018000051046104710421F0CE0101960E94161169
:10181000F601958581E0892763960FB6F894DEBFBF
:101820000FBECDBFDF91CF911F910F91FF90EF9031
:10183000DF90CF90BF90AF907F906F905F904F9070
:10184000089540E050E0BA010E94930B08951F9361
:10185000CF93DF93EC0110924A0880914B0890914E
:101860004C08FC0165852685261721F00E94A30EF1
:1018700011E001C010E08A819B81009731F481E082
:1018800089871A861C861B8605C0CE010E946C0BB8
:10189000811111E081E080934A08112311F00E9428
:1018A000EA0EDF91CF911F9108950F931F93CF936D
:1018B000DF931092F80700E010E0E80183E0CC0F1E
:1018C000DD1F8A95E1F7C00FD11FC750D84FCE0159
:1018D000602F0E94BB0FCE0168EF77E00E94BE0F21
:1018E0000F5F1F4F0830110541F78091F807809373
:1018F000F707DF91CF911F910F9108952091F8077D
:10190000E22FF0E0DF0144E0B595A7954A95E1F7B5
:10191000AA57BE4F8C918F3F31F4EF70F070EA57A9
:10192000FE4F808101C08C5F90E0FC0133E0EE0F40
:10193000FF1F3A95E1F7E80FF91FE750F84F828152
:10194000938190934E0880934D082093F707089554
:10195000BC01DC011D962C9130E0C90153E0880FD9
:10196000991F5A95E1F7820F931F8750984FDC011A
:10197000ED91FC910190F081E02D09958091F8079F
:101980008093F7070895BC01DC011D962C9130E08F
:10199000C901E3E0880F991FEA95E1F7820F931FD1
:1019A0008750984FDC01ED91FC910280F381E02D8E
:1019B00009958091F8078093F707089510924408DD
:1019C000109243081092460810924508E1E4F8E0AE
:1019D00082EA91E090934208809341081682108633
:1019E0001782E9EFF7E0282F892F138212821582E0
:1019F000148220838183168210861782399698E09C
:101A0000E134F90791F70895CF93DF93EC01CB010F
:101A100021E0FB012587BE010E949413E0914B0851
:101A2000F0914C089D858585891710F40E94EA0E77
:101A3000DF91CF9108950F931F93CF93DF93EC0124
:101A40000E94C20F8C01CE01B8010E949413E09154
:101A50004B08F0914C0881E0D8011D962C911D9700
:101A60009585921708F080E0DF91CF911F910F913B
:101A70000895FC017287618754874387158608950E
:101A8000CF93DF930F92CDB7DEB7FC018FB7898379
:101A9000F89482819381009759F4818592852385FA
:101AA00034858217930740F401969287818704C09A
:101AB000CF010E941B0D01C080E099819FBF882348
:101AC00011F00E94EA0E0F90DF91CF9108956F926E
:101AD0007F928F929F92AF92BF92CF92DF92EF92BE
:101AE000FF920F931F93CF93DF93CDB7DEB7649729
:101AF0000FB6F894DEBF0FBECDBF6C014A015B018B
:101B000019861A861B861C861D861E861F86188AC5
:101B10001E82FC0115868FB78983F89460904B086C
:101B200070904C0881859285009721F001979287EB
:101B3000818715C0411551056105710551F0CE0130
:101B4000029660E0A501940104E01DE076010E9488
:101B50004211C601B3010E9480130E94EA0E8981DE
:101B60008FBF81149104A104B10421F0CE0102962B
:101B70000E941611F601958581E0892764960FB6BB
:101B8000F894DEBF0FBECDBFDF91CF911F910F91B3
:101B9000FF90EF90DF90CF90BF90AF909F908F908D
:101BA0007F906F90089540E050E0BA010E94670D69
:101BB0000895CB010E94400D0895CF92DF92EF92DD
:101BC000FF920F931F93CF93DF930F92CDB7DEB7A2
:101BD0006C01CB0130914F08F60134873F5F3093A1
:101BE0004F0877836683840F951F019795838483BD
:101BF0005187408784E090E09387828725872687F6
:101C0000108B0787F28AE18A148A138AC6010E9420
:101C10007E118FB78983F894F601258530E0C901DC
:101C2000A3E0880F991FAA95E1F7820F931F8750B1
:101C3000984F908F878B81E498E0968B858BE0910D
:101C40004108F09142080190F081E02DB60109951C
:101C500089818FBF0F90DF91CF911F910F91FF90DE
:101C6000EF90DF90CF900895CF92DF92EF92FF92A6
:101C70000F931F93CF93DF93CDB7DEB7A1970FB626
:101C8000F894DEBF0FBECDBF6B017C011E8A1F8A98
:101C9000188E198E1A8E1B8E1C8E1D8E1B8A1C820E
:101CA0001B821E821D8282EA91E09A8389831F82B1
:101CB000198618868E010F5F1F4FC80160E070E023
:101CC00041E050E00E94390DCE010F96B701A60108
:101CD0000E941C1189ED9DE09D8B8C8B19A308A39C
:101CE00081E08B8B80E598E0BE01615F7F4F0E94B1
:101CF000F10FC8010E94D30DA1960FB6F894DEBF74
:101D00000FBECDBFDF91CF911F910F91FF90EF904C
:101D1000DF90CF900895FC01262F30E0C90153E0F9
:101D2000880F991F5A95E1F7820F931F8750984F9C
:101D3000908F878B6687089580914A08813011F4CF
:101D40000E94971208950F931F93CF93DF9300D0B3
:101D50000F92CDB7DEB78C018FB78983F894E091ED
:101D60004B08F0914C0821E0E017F10721F0858540
:101D7000861708F020E089818FBFC8012B836A8312
:101D80000E94C30C6A81F801668765878FB78983D3
:101D9000F894C8010E94A80C89818FBF2B8122234F
:101DA00089F08FB78983F8940E947E0C0E940014FA
:101DB00080914D0890914E080E94E41389818FBF55
:101DC0000E949C0E0F900F900F90DF91CF911F916A
:101DD0000F910895CF93DF930F92CDB7DEB78FB7F2
:101DE0008983F8940E947E0C20914B0830914C0816
:101DF00080914D0890914E082817390751F00E94A4
:101E0000001480914D0890914E080E94E4130E94A6
:101E10009C0E89818FBF0F90DF91CF910895EF9233
:101E2000FF920F931F93CF93DF930F92CDB7DEB73F
:101E30007C018FB78983F89400914B0810914C086E
:101E4000C7010E94C30C89818FBFE016F10611F40F
:101E50000E94EA0E0F90DF91CF911F910F91FF909A
:101E6000EF9008950F931F93CF93DF930F92CDB709
:101E7000DEB78C018FB78983F894E0914108F09127
:101E800042080280F381E02D81E498E0B8010995D1
:101E9000C8010E94A80CD8011D964C911D97242FB3
:101EA00030E0C90153E0880F991F5A95E1F7820F7E
:101EB000931F8750984F58969C938E93579756969A
:101EC0009C938E935597E0914B08F0914C08868532
:101ED000481728F00E940014C8010E94E413E09102
:101EE0004B08F0914C08D8011D969C911D97858553
:101EF000891710F40E94EA0E89818FBF0F90DF913D
:101F0000CF911F910F910895CF93DF93EC010E9421
:101F1000510A8A819B81009779F0EF81F88530978B
:101F200059F081E090E00E8002C0880F991F0A945A
:101F3000E2F79081982B9083DF91CF910895CF9312
:101F4000DF93EC010E94EB098A819B81009781F469
:101F5000EF81F885309761F081E090E00E8002C05B
:101F6000880F991F0A94E2F78095908198239083B7
:101F7000DF91CF910895FC0166830895FC0170877D
:101F800067830895DC011296ED91FC9113971496E6
:101F90002D913C911597CF0140E05585541710F0D5
:101FA000452FCF01E217F30721F00190F081E02DDA
:101FB000F4CF08950E94550C0E946D0980E598E0C9
:101FC0000E94EA0F0E94910A0E942D1308950E9418
:101FD000C1110895FC01128616821782108611869F
:101FE0000895CF92DF92EF92FF920F931F93CF93BA
:101FF000DF930F92CDB7DEB76C017B018FB789837A
:10200000F894F60102811381CB010E947A0AC6017D
:10201000B7010E942D0AF70187819085A185B285BD
:1020200083879487A587B68701151105D1F00E9493
:10203000F412F7010781108521853285601B710B31
:10204000820B930B1616170618061906ACF40E949D
:10205000E412DC01CB01F60186839783A087B18768
:102060000BC0F60186839783A087B187BC01CD01A1
:102070000E9412130E949E12F70184818260848361
:1020800089818FBF0F90DF91CF911F910F91FF90AA
:10209000EF90DF90CF9008950F931F93CF93DF932E
:1020A0000F92CDB7DEB78C018FB78983F894C80142
:1020B0000E94B709F80182819381009711F40E9470
:1020C000AE1289818FBF0F90DF91CF911F910F9139
:1020D0000895CF92DF92EF92FF920F931F93CF93C9
:1020E000DF938C010E942613D8011296ED91FC918A
:1020F00013978FEFC82E8FEFD82E8FEFE82E8FE734
:10210000F82E3DC0248121FF37C043855485658565
:102110007685E8018E819F81A885B985841795070A
:10212000A607B707D0F0822F8460848380FF05C0A4
:10213000822F8C608D7F84831FC087819085A185CD
:10214000B28583879487A587B6878C159D05AE05D4
:10215000BF0590F46C017D010FC0481B590B6A0B41
:102160007B0B43875487658776874C155D056E0525
:102170007F0510F46A017B010190F081E02D30971A
:1021800009F6F801C281D3811CC08C8182FF0EC088
:1021900069897A89ED81FE818F85988909958C817D
:1021A0008B7F8C8380FF02C0BE0102C060E070E0C4
:1021B0000990D881C02D6115710519F0C8010E94E0
:1021C0004C10209711F70E940C13DC01CB018C15E9
:1021D0009D05AE05BF0530F0E8018E839F83A8877B
:1021E000B98782CFDFEFCD16DFEFDD06DFEFED063B
:1021F000DFE7FD0618F00E94AE120FC0C80ED91E10
:10220000EA1EFB1EC701B6010E941213DC01CB01BE
:10221000F80186839783A087B187DF91CF911F91C3
:102220000F91FF90EF90DF90CF900895BC0180E573
:1022300098E00E944C1008950F931F93CF93DF9363
:10224000EC01CB01BA0121E732E040E050E00E940E
:102250005D166B5F7F4F8F4F9F4F2AE030E040E06D
:1022600050E00E947C1689019A01095010402040DC
:1022700030400F83188729873A87DF91CF911F91CC
:102280000F910895CF92DF92EF92FF920F931F93D9
:10229000CF936C01C62FBA01A9010E941C11F6014F
:1022A00016830583F28AE18ACC2319F481E08483C2
:1022B00002C0F601148280914B0890914C08F601FF
:1022C000908B878780E598E0B6010E94F10FCF914F
:1022D0001F910F91FF90EF90DF90CF900895109293
:1022E00053081092520810925508109254088AEA26
:1022F00091E090935108809350080895CF93DF9315
:10230000EC015F854889EC81FD8120E030E06FEFD2
:1023100007C0AE81BF81A20FB31F6C932F5F3F4FE9
:102320008885998528173907A0F35083DF01119715
:102330004C93DF0112971C92DF01139780E88C9376
:10234000DF0114971C92DF01159782E08C9311979F
:102350008F5F8831D9F7DF015B9789898C93DF0123
:102360005C978A898C93DF015D978AE18C93119742
:102370008F5F8032D9F7B397FD83EC83DF91CF91E4
:1023800008950E948C120E949A1281E080934A085C
:102390000E947E0C80914D0890914E0890934C08BD
:1023A00080934B080E949E120E949412A0914B08A9
:1023B000B0914C081496CD91CDBFDD91DEBFFF9159
:1023C000EF91DF91CF91BF91AF919F918F917F91CD
:1023D0006F915F914F913F912F911F910F91FF90BE
:1023E000EF90DF90CF90BF90AF909F908F907F90B5
:1023F0006F905F904F903F902F901F900F900FBE67
:102400000F90189508950F920FB6F8940F921F929F
:1024100011242F923F924F925F926F927F928F92F0
:102420009F92AF92BF92CF92DF92EF92FF920F9363
:102430001F932F933F934F935F936F937F938F934C
:102440009F93AF93BF93CF93DF93EF93FF93A091AD
:102450004B08B0914C0814960DB60D920EB60D9225
:1024600080914D0890914E0890934C0880934B08B2
:10247000A0914B08B0914C081496CD91CDBFDD9141
:10248000DEBFFF91EF91DF91CF91BF91AF919F910F
:102490008F917F916F915F914F913F912F911F91FC
:1024A0000F91FF90EF90DF90CF90BF90AF909F90F3
:1024B0008F907F906F905F904F903F902F901F90E4
:1024C0000F900FBE0F9018951F920F920FB60F929C
:1024D00011242F933F934F935F936F937F938F9329
:1024E0009F93AF93BF93EF93FF9380E598E00E9493
:1024F00069100E940D14FF91EF91BF91AF919F91D0
:102500008F917F916F915F914F913F912F910F909C
:102510000FBE0F901F9018955A98529AE9E6F0E076
:102520008081836080830895E098E89A08955A989E
:102530005A9A08958CE08093810008951092850046
:1025400010928400B198EFE6F0E080818260808391
:10255000E1E8F0E08081846080830895B198EFE63F
:10256000F0E080818D7F8083E1E8F0E080818B7FE7
:10257000808310928500109284001092890010923E
:1025800088000895CF93DF9300D000D0CDB7DEB799
:1025900080918400909185009C838B83809184003E
:1025A000909185009A8389832B813C8189819A81CE
:1025B0002817390769F78B819C810F900F900F9036
:1025C0000F90DF91CF910895AB01BC01E8E8F0E0F6
:1025D00080819181841B950B91838083808191817F
:1025E000BC0180E090E008950F931F930E94C212F7
:1025F00000918800109189008017910728F4081B2A
:10260000190B20E030E003C000E010E09801B801B1
:10261000C9011F910F9108950E94C212BC0180E070
:1026200090E00895DC01CB01803020E0920721E0AA
:10263000A20720E0B20710F08FEF9FEF9093890080
:1026400080938800BC0180E090E008958FEF9FEFB9
:102650009093890080938800089514BC15BC15BA26
:1026600010926E0010925B0810925C0810925D0848
:1026700010925E080895CF93DF930F92CDB7DEB727
:102680008FB78983F89480915B0890915C08A09142
:102690005D08B0915E080196A11DB11D80935B0895
:1026A00090935C08A0935D08B0935E0889818FBF0A
:1026B0000F90DF91CF9108951F920F920FB60F9256
:1026C00011242F933F934F935F936F937F938F9337
:1026D0009F93AF93BF93EF93FF930E943B13FF91A0
:1026E000EF91BF91AF919F918F917F916F915F918A
:1026F0004F913F912F910F900FBE0F901F90189503
:102700000F931F93CF93DF938C01EB01CB010E94BA
:10271000C30CC801BE010E94840F0D8B1E8BDF917C
:10272000CF911F910F910895CF93DF93EB018D8986
:102730009E89DC01ED91FC910280F381E02D0995E9
:10274000CE010E94A80C8F89988D9E8B8D8BDF9176
:10275000CF910895FC01A0914B08B0914C0895854C
:102760001D968C911D97981778F085899689FC01A4
:1027700042815381248135814217530729F021E09A
:10278000209373080E94800A0895CF93DF93EC0191
:102790004A855B8560E070E080E698E00E941C114D
:1027A00081E08093640810927208109271088AEA9E
:1027B00093E19093660880936508D0937008C09366
:1027C0006F08DF91CF91089520915F082223B9F41B
:1027D000DC015596ED91FC9156972281338144811D
:1027E00055812417350759F00E94C51380E598E0FC
:1027F00060E678E00E94F10F81E080935F08089521
:1028000080915F08882341F080E598E060E678E0F9
:102810000E944C1010925F080895809173088823DD
:1028200021F00E94EA0E1092730808951092670832
:10283000109268081092690810926A0810926B084A
:1028400010926C0810926D0810926E081092640835
:102850000895E1ECF0E02081286120832081206C44
:102860002083909375088093740880E00895E1ECCC
:10287000F0E08081877E808380818F73808380E019
:1028800008950F931F93CF93DF930F92CDB7DEB7C9
:10289000DC018B0160E020E030E080E090E02EC0C1
:1028A0007FB77983F8941D967C911D971C96EC91C7
:1028B0001C977E17E9F05096ED91FC915197E70F28
:1028C000F11D7081FA01E80FF91F70831D967C914C
:1028D0001D977F5F1D967C931D971B96EC911B9710
:1028E0007E1718F01D961C921D972F5F3F4F01C059
:1028F00061E079817FBF613021F0019680179107F7
:1029000079F6C9010F90DF91CF911F910F91089532
:10291000FC01248935894689578960E472E48FE097
:1029200090E00E947C1621503040E1ECF0E0808184
:1029300010821092C0003093C5002093C4008083A1
:102940000895EF920F931F93FC01DA01633839F178
:10295000643838F46138C9F06238F0F4603871F5E1
:1029600007C0653811F16538E8F0663839F521C0DF
:102970008D919D910D90BC91A02D848B958BA68BF4
:10298000B78BCF010E94881419C0518B408B138BD9
:10299000028B2387E08612C08C91808F0FC0528FEC
:1029A000418F0CC08C91878709C08091C1008061E4
:1029B00003C08091C1008F7E8093C10080E090E0D1
:1029C0001F910F91EF900895FC01118612861486D5
:1029D000158617868AE0808F128E118E168640E04B
:1029E00051EE60E070E0448B558B668B778B1092D4
:1029F000C0001092C100CF010E94881486E080932D
:102A0000C2000895CF93DF930F92CDB7DEB7FC01DC
:102A10008FB78983F8948285A289B389A80FB11DE5
:102A20008C918093C60082858F5F9085891708F00E
:102A300080E0828789818FBF0F90DF91CF910895C9
:102A4000CF92DF92EF92FF920F931F93CF93DF937A
:102A50000F92CDB7DEB7DC016B017A0119965C915C
:102A600019971A966C911A9730E000E010E080E018
:102A700090E02AC02FB72983F89419964C911997A2
:102A8000242F2F5F18967C911897271708F020E0C5
:102A90001A967C911A97271789F0F701E80FF91F0A
:102AA00070815296ED91FC915397E40FF11D708364
:102AB00019962C9319970F5F1F4F01C031E02981A0
:102AC0002FBF313021F001968C159D0599F65617D0
:102AD00061F48FB78983F8948091C00085FF03C0AB
:102AE000CD010E94021589818FBFC8010F90DF912F
:102AF000CF911F910F91FF90EF90DF90CF900895AD
:102B00000F931F93CF93DF930F92CDB7DEB78C0156
:102B10009091C6009983D8011C962C911C97822F06
:102B20008F5F1B963C911B97831708F080E0D801BC
:102B30005096ED91FC915197E20FF11D90831C96F8
:102B40008C931C971D969C911D97891771F48F5F2C
:102B50001D968C931D971B969C911B97891710F0BF
:102B60001D961C9281E0F8018687D8011F968C91F2
:102B70001F97882361F0ED91FC910084F185E02D91
:102B8000C80161E070E0AE014F5F5F4F0995998128
:102B9000F801808D981739F4018CF28DE02D309773
:102BA00011F0C80109950F90DF91CF911F910F91FE
:102BB00008951F920F920FB60F9211242F933F93F7
:102BC0004F935F936F937F938F939F93AF93BF9335
:102BD000EF93FF9380917408909175080E9480157F
:102BE000FF91EF91BF91AF919F918F917F916F91E5
:102BF0005F914F913F912F910F900FBE0F901F90BB
:102C00001895FC0131852285321711F00E940215BA
:102C100008951F920F920FB60F9211242F933F9396
:102C20004F935F936F937F938F939F93AF93BF93D4
:102C3000EF93FF9380917408909175080E9401169C
:102C4000FF91EF91BF91AF919F918F917F916F9184
:102C50005F914F913F912F910F900FBE0F901F905A
:102C60001895FC0112821682158210861782138233
:102C70000895FC018381882381F48281882369F08F
:102C800012828581968101969683858387819085BE
:102C900001969087878381E084830895FC01838176
:102CA000882351F48281882339F0128285819681AC
:102CB00001969683858314820895629FD001739F45
:102CC000F001829FE00DF11D649FE00DF11D929FC8
:102CD000F00D839FF00D749FF00D659FF00D992707
:102CE000729FB00DE11DF91F639FB00DE11DF91F2B
:102CF000BD01CF0111240895A1E21A2EAA1BBB1B0E
:102D0000FD010DC0AA1FBB1FEE1FFF1FA217B307B7
:102D1000E407F50720F0A21BB30BE40BF50B661FCD
:102D2000771F881F991F1A9469F760957095809591
:102D300090959B01AC01BD01CF010895EE0FFF1FDF
:0C2D40000590F491E02D0994F894FFCF69
:102D4C002F6465762F7474790050415353004641BB
:102D5C00494C003A20000A0054696D6572005175A7
:102D6C00616E74756D0052520053656D004D757433
:102D7C00657800536C656570004D657373616765AC
:102D8C000054696D656453656D0053544152540A87
:102D9C0000497465726174696F6E3A002F646576D0
:102DAC002F6E756C6C00000000005A0960096209F6
:102DBC00640967096A09000000002D0AB7090000C0
:102DCC000000510AEB09FF00010102020202030399
:102DDC0003030303030300000000E801E801000003
:102DEC000000840F9F0F000000002D0AB70900009F
:0E2DFC000000E4142914371441142015A1140A
:00000001FF
