:100000000C943A000C943F0D0C9462000C94620026
:100010000C9462000C9462000C9462000C946200D8
:100020000C9462000C9462000C9462000C94A00D7D
:100030000C9462000C9462000C9462000C946200B8
:100040000C94B90E0C9462000C9461110C94620033
:100050000C9491110C9462000C9462000C94620058
:100060000C9462000C9462005204C1041A08AB0C98
:10007000230F9E0F11241FBECFEFD8E0DEBFCDBFF0
:1000800011E0A0E0B1E0E4E0F4E202C005900D92DE
:10009000AE39B107D9F718E0AEE9B1E001C01D9261
:1000A000A137B107E1F710E0C4E7D0E004C0229720
:1000B000FE010E94FC11C836D107C9F70E94D0008A
:1000C0000C9400120C94000083B7817F83BFF894D6
:1000D00083B7816083BF7894889583B78E7F83BF11
:1000E0007894F2CFCF92DF92EF92FF920F931F930B
:1000F000CF93DF937C018B016A01C0E0D0E019C08F
:10010000D701ED91FC91B8016C1B7D0BA6014C0F42
:100110005D1F0084F185E02DC7010995C80FD91F27
:10012000C017D10731F065E070E080E090E00E94F8
:100130007009C017D10720F3DF91CF911F910F9164
:10014000FF90EF90DF90CF9008950F931F93CF9380
:10015000DF938C01C0E3D5E0CE010E94BD06C8014B
:100160000E940F09CE010E945307809100089091D0
:1001700001080E944B0ADF91CF911F910F910895C2
:1001800086E995E00E94530784E795E00E94BD064A
:1001900080910008909101080E944B0A08950895EB
:1001A000CF92DF92EF92FF920F931F93CF93DF9343
:1001B0000E94160BCFE9D1E0CE0168EB71E040E878
:1001C00051E021E004E612E0EE24FF240E94190928
:1001D00028E3C22E23E0D22EC60161E573E040E899
:1001E00051E020E004E610E00E941909CE010E94CF
:1001F0006E0AC6010E946E0AC7EDD4E080E091E06D
:100200009093D8048093D704CE0106970E946C1077
:10021000BE01645070408EE997E00E944C050E9438
:10022000230B80E090E0DF91CF911F910F91FF9021
:10023000EF90DF90CF900895FC0120E030E002C005
:100240002F5F3F4F81918823D9F7C90108954F92BD
:100250005F926F927F928F929F92AF92BF92CF9256
:10026000DF92EF92FF920F931F93CF93DF934B0197
:100270005C01EA01E1E0CE2ED12CE12CF12C6AE008
:1002800070E080E090E0681579058A059B0590F4A0
:100290002FE0C216D104E104F10461F00894C11CFE
:1002A000D11CE11CF11C2AE030E040E050E00E944B
:1002B000B911E9CFFE01EC0DFD1D10820894C108B3
:1002C000D108E108F1083AE0432E512C612C712C41
:1002D0008E010C0D1D1DC501B401A30192010E94E8
:1002E000D811605DF801608349015A010894C10882
:1002F000D108E108F108FFEFCF16FFEFDF06FFEFAF
:10030000EF06FFEFFF0621F7DF91CF911F910F91CD
:10031000FF90EF90DF90CF90BF90AF909F908F9025
:100320007F906F905F904F900895CF93DF93C4E6D6
:10033000D0E088EB95E00E94BD060E94BA0788EBEA
:1003400095E00E9453072197A1F7DF91CF9108957F
:10035000AF92BF92CF92DF92EF92FF920F931F93D3
:10036000CF93DF93CDB7DEB760970FB6F894DEBFBB
:100370000FBECDBF6C015B0180E091E00E9499044B
:100380008C01C6010E94EB066B017C018CEE94E0AF
:100390000E94EB06DC01CB01C81AD90AEA0AFB0A63
:1003A000F3E0CC0CDD1CEE1CFF1CFA95D1F7FE012E
:1003B000319680E090E01192019680319105D9F755
:1003C00080E38983C5010E941C01BC01C801A5010D
:1003D0000E947200C80162E070E049E051E00E94B2
:1003E0007200C701B601AE014F5F5F4F0E94270147
:1003F000CE0101960E941C01BC01C801AE014F5FF5
:100400005F4F0E947200C80161E070E04CE051E073
:100410000E94720060960FB6F894DEBF0FBECDBF8B
:10042000DF91CF911F910F91FF90EF90DF90CF90D0
:10043000BF90AF90089581E495E06EE071E00E9476
:10044000A80182E595E061E171E00E94A80183E6E0
:1004500095E064E171E00E94A8018DEF94E067E10E
:1004600071E00E94A8018EE095E06AE171E00E94CF
:10047000A8018FE195E06EE171E00E94A80180E3A0
:1004800095E062E271E00E94A80184E795E065E2F0
:1004900071E00E94A80185E895E068E271E00E94A1
:1004A000A80186E995E06BE271E00E94A80187EA65
:1004B00095E06EE271E00E94A80188EB95E061E3AF
:1004C00071E00E94A8010895CF93DF93CDB7DEB706
:1004D000A0970FB6F894DEBF0FBECDBF80E091E0CD
:1004E0000E9499046C018CEE94E00E94B0068DEF9E
:1004F00094E00E94B0068EE095E00E94B0068FE185
:1005000095E00E94B00680E395E00E94B00681E489
:1005100095E00E94B00682E595E00E94B00683E671
:1005200095E00E94B00684E795E00E94B00685E859
:1005300095E00E94B00686E995E00E94B00687EA41
:1005400095E00E94B00688EB95E00E94B006D601C7
:10055000ED91FC910284F385E02DC60161E870E025
:1005600040E050E020E030E009EC15E0EE24FF240C
:100570006894E5F8099580E091EEA0E0B0E0898309
:100580009A83AB83BC83D601ED91FC910284F38501
:10059000E02DC60160E870E0AE014F5F5F4F20E0E4
:1005A00030E000E010E0EE24FF240995D601ED9143
:1005B000FC910284F385E02DC60166E870E040E01E
:1005C00050E020E030E00995D601ED91FC910280E9
:1005D000F381E02DC6010995D601ED91FC910084CF
:1005E000F185E02DC60166E070E044E351E0099535
:1005F00081E8A82E81E0B82E0E94770E04E610E074
:100600008CEE94E00E94BD068CEE94E00E945307AD
:1006100001501040A9F718861F821A861986BE82DB
:10062000AD821B861D861C8604E610E08DEF94E0EB
:100630000E94BD06CE01059660E070E048EE53E0F2
:100640000E9475088DEF94E00E94530701501040FE
:1006500069F704E610E08FE195E00E94BD06CE0147
:1006600005960E947C088FE195E00E945307015097
:10067000104089F704E610E08EE095E00E94BD0688
:10068000CE0105960E940F098EE095E00E94530767
:100690000150104089F7CE01059660E070E041E01E
:1006A00050E00E94750814E6C12ED12C89EE95E029
:1006B00062E076E040E851E022E005EA10E0B5E0D3
:1006C000EB2EF12CEC0EFD1E0E94190989EE95E02F
:1006D0000E946E0AC7010E947C080894C108D108D4
:1006E000C114D10419F71E8A1D8A188E1F8ABC8A6C
:1006F000AB8A198E1B8E1A8E04E610E081E495E019
:100700000E94BD06CE0143960E94E70581E495E074
:100710000E9453070150104089F704E610E082E57B
:1007200095E00E94BD06CE0143960E947C0682E5BC
:1007300095E00E94530783E695E00E94BD06CE0136
:1007400043960E94820683E695E00E94530701507B
:10075000104029F7A4E6CA2ED12C85E895E00E9426
:10076000BD0689EE95E062E076E040E851E022E0E7
:1007700000EC10E0EE24FF240E94190985E895E0C2
:100780000E94530786E995E00E94BD0689EE95E038
:100790000E946E0A84E795E00E9453070894C108FE
:1007A000D108C114D104C9F61092FF0704E610E085
:1007B00087EA95E00E94BD060F920FB6F8940F925B
:1007C0001F9211242F923F924F925F926F927F92CD
:1007D0008F929F92AF92BF92CF92DF92EF92FF9251
:1007E0000F931F932F933F934F935F936F937F9339
:1007F0008F939F93AF93BF93CF93DF93EF93FF9329
:10080000A0910008B091010814960DB60D920EB695
:100810000D928091000890910108909303088093B5
:100820000208A0910008B09101081496CD91CDBFA7
:10083000DD91DEBFFF91EF91DF91CF91BF91AF913D
:100840009F918F917F916F915F914F913F912F91E8
:100850001F910F91FF90EF90DF90CF90BF90AF90DE
:100860009F908F907F906F905F904F903F902F90D0
:100870001F900F900FBE0F9087EA95E00E945307DC
:100880000150104009F094CF81E08093FF070E944F
:1008900095010E941B0264EF71E080E090E00E94ED
:1008A0007009AACE81E991E09093D2048093D1049B
:1008B000109285071092840710928707109286077E
:1008C000E4E8F7E081E891E0929382931682108643
:1008D0001782109293071092920710929507109228
:1008E0009407E2E9F7E092938293168210861782CA
:1008F00008952BE331E0FC0137832683089580E0DF
:10090000089580E0089580E090E0089580E090E010
:10091000089580E090E008958BE391E09093AB0719
:100920008093AA078EE997E066EA77E00E944C057B
:100930000895CF93DF93E091A007F091A10730973E
:10094000B9F4E0E0F0E015C0DC01C681D7813D914B
:10095000332331F02991222331F03217C1F303C040
:100960002881222351F00280F381E02D309719F085
:100970003297309749F7E4EAF7E0CF01DF91CF9162
:10098000089589E591E090939F0780939E071092C8
:10099000A1071092A0071092A3071092A20789E462
:1009A00091E09093A5078093A4070895CF93DF93D8
:1009B0009C01FB01A281B381109729F08081918174
:1009C00011969C938E93C081D181209711F0BB83A7
:1009D000AA83D90112968D919C911397E817F90774
:1009E00021F41396DC93CE931297D90114968D912E
:1009F0009C911597E817F90731F482819381159638
:100A00009C938E9314971182108213821282DF912D
:100A1000CF910895CF93DF93DC01FB0112962D91C6
:100A20003C9113976217730781F414968D919C91F2
:100A300015976817790749F413961C921E9212971E
:100A400015961C921E92149724C060817181828138
:100A50009381EB019B838A8342815381EA017983ED
:100A60006883E217F30731F48081918113969C9398
:100A70008E93129714968D919C911597E817F9070C
:100A800021F415965C934E93149711821082138271
:100A90001282DF91CF910895CF93DF93FC01DB01A8
:100AA00082819381009761F4738362837583648389
:100AB00013961C921E92129711961C921E920DC0B4
:100AC000C481D581798368831396DC93CE93129782
:100AD00011961C921E9275836483DF91CF910895C5
:100AE000CF93DF93FC01DB01228133812115310596
:100AF00061F4738362837583648313967C936E932E
:100B0000129711967C936E9311C084819581EC01AC
:100B10007983688313969C938E93129711963C93D6
:100B20002E9375836483F90173836283DF91CF9180
:100B30000895FC0111821082138212820895FC0133
:100B4000A281B381109759F08D919C9193838283F8
:100B5000A481B5818D919C9111979583848308958B
:100B6000CF93DF93EC01CB0121E0FB012587BE0190
:100B70000E94F10EE0910008F09101089D858585A5
:100B8000891710F40E94260ADF91CF9108950F93E0
:100B90001F93CF93DF93EC010E94FE0A8C01CE01DC
:100BA000B8010E94F10E1C870B87E0910008F091BC
:100BB000010881E0D8011D962C911D979585291774
:100BC00008F480E0DF91CF911F910F910895FC010F
:100BD00081E0818712861486138608954F925F9272
:100BE0006F927F92AF92BF92CF92DF92EF92FF927D
:100BF0000F931F93CF93DF93CDB7DEB763970FB6F5
:100C0000F894DEBF0FBECDBF6C012A013B011886F0
:100C100019861A861B861C861D861E861F861D82C7
:100C2000FC0115861092FF07A0900008B090010803
:100C30008185882349F01186F5018585F601828733
:100C4000B486A38680E02FC041155105610571056A
:100C500051F0CE01019660E0A301920100EB15E096
:100C600076010E947E0CC601B5010E94DD0EF501E1
:100C70008585F60192858917A8F082870281138104
:100C80000EC0C801F60162850E94C709F601848181
:100C900095810817190731F0F801008111810115BC
:100CA000110579F781E091E09093FF07882311F017
:100CB0000E94260A411451046104710421F0CE01FE
:100CC00001960E94520CF601958581E08927639672
:100CD0000FB6F894DEBF0FBECDBFDF91CF911F914D
:100CE0000F91FF90EF90DF90CF90BF90AF907F90EB
:100CF0006F905F904F90089540E050E0BA010E94DD
:100D0000EE0508951F93CF93DF93EC011092FF0738
:100D10008091000890910108FC01658526852617C1
:100D200021F00E94DF0911E001C010E08A819B815F
:100D3000009731F481E089871A861C861B8605C0DE
:100D4000CE010E94C705811111E081E08093FF0769
:100D5000112311F00E94260ADF91CF911F9108956F
:100D6000FC01108211821282138214821582168273
:100D7000178217861686108A08950F931F93CF93B4
:100D8000DF930F92CDB7DEB78C01FC0180898823F9
:100D9000E1F48FB78983F894148215821682178242
:100DA0008091100890911108A0911208B091130839
:100DB00082879387A487B5870E94820EF801918766
:100DC000808789818FBF81E0808B0F90DF91CF91E9
:100DD0001F910F9108950F931F93FC01268537856E
:100DE0002115310559F040E050E060817181828128
:100DF00093810E94D81189019A0103C000E010E09C
:100E00009801B801C9011F910F9108950F931F9385
:100E1000FC018B01BA01A90182859385A485B58562
:100E2000481B590B6A0B7B0B0084F185E02D423087
:100E3000510561057105C8F020E030E080E091E0E7
:100E40008E1B9F0BA0E0B0E0080F191F2A1F3B1F4D
:100E50004150504060407F4F762F652F542F4427DC
:100E6000040F151F261F371F19C0411551056105B5
:100E7000710519F40E171F0768F420E030E080E0D8
:100E800091E08E1B9F0BA0E0B0E0080F191F2A1FF6
:100E90003B1F04C00E1B1F0B20E030E0B801C9014E
:100EA0001F910F9108950F931F93CF93DF930F928C
:100EB000CDB7DEB78C01FC018089882361F18FB743
:100EC0008983F8940E94820EBC0120911008309111
:100ED00011084091120850911308C8010E9406079A
:100EE000AB01BC01F801448355836683778380811D
:100EF0009181A281B381840F951FA61FB71F8083A4
:100F00009183A283B3838685978501969787868789
:100F100089818FBF108A0F90DF91CF911F910F9120
:100F200008950F931F93CF93DF931092AD0700E0C6
:100F300010E0E80183E0CC0FDD1F8A95E1F7C00FD8
:100F4000D11FC255D84FCE01602F0E94F70ACE01A3
:100F50006DEA77E00E94FA0A0F5F1F4F0830110513
:100F600041F78091AD078093AC07DF91CF911F913E
:100F70000F9108952091AD07E22FF0E0DF0144E0EA
:100F8000B595A7954A95E1F7AB59BE4F8C918F3F28
:100F900031F4EF70F070EB59FE4F808101C08C5F2F
:100FA00090E0FC0133E0EE0FFF1F3A95E1F7E80F08
:100FB000F91FE255F84F8281938190930308809343
:100FC00002082093AC070895BC01DC011D962C910A
:100FD00030E0C90153E0880F991F5A95E1F7820F5D
:100FE000931F8255984FDC01ED91FC910190F081A7
:100FF000E02D09958091AD078093AC070895BC0161
:10100000DC011D962C9130E0C901E3E0880F991FA7
:10101000EA95E1F7820F931F8255984FDC01ED911D
:10102000FC910280F381E02D09958091AD078093BA
:10103000AC0708951092F9071092F8071092FB0779
:101040001092FA07E6EFF7E081E891E09093F70756
:101050008093F607168210861782EEEAF7E0282FB3
:10106000892F138212821582148220838183168233
:1010700010861782399697E0E63FF90791F70895B1
:10108000CF93DF93EC01CB0121E0FB012587BE016B
:101090000E94F10EE0910008F09101089D85858580
:1010A000891710F40E94260ADF91CF9108950F93BB
:1010B0001F93CF93DF93EC010E94FE0A8C01CE01B7
:1010C000B8010E94F10EE0910008F091010881E062
:1010D000D8011D962C911D979585921708F080E0F8
:1010E000DF91CF911F910F910895FC017287618765
:1010F0005487438715860895CF93DF930F92CDB71A
:10110000DEB7FC018FB78983F894828193810097C1
:1011100059F481859285238534858217930740F49D
:1011200001969287818704C0CF010E94570801C0B1
:1011300080E099819FBF882311F00E94260A0F90BA
:10114000DF91CF9108956F927F928F929F92AF928D
:10115000BF92CF92DF92EF92FF920F931F93CF93A4
:10116000DF93CDB7DEB764970FB6F894DEBF0FBE3E
:10117000CDBF6C014A015B0119861A861B861C864D
:101180001D861E861F86188A1E82FC0115868FB753
:101190008983F89460900008709001088185928599
:1011A000009721F001979287818715C0411551055D
:1011B0006105710551F0CE01029660E0A501940130
:1011C00000E418E076010E947E0CC601B3010E9483
:1011D000DD0E0E94260A89818FBF81149104A1042B
:1011E000B10421F0CE0102960E94520CF6019585C1
:1011F00081E0892764960FB6F894DEBF0FBECDBF9D
:10120000DF91CF911F910F91FF90EF90DF90CF90E2
:10121000BF90AF909F908F907F906F90089540E027
:1012200050E0BA010E94A3080895CB010E947C08F7
:101230000895CF92DF92EF92FF920F931F93CF9377
:10124000DF930F92CDB7DEB76C01CB01309104086C
:10125000F60134873F5F3093040877836683840FF9
:10126000951F0197958384835187408784E090E0A0
:101270009387828725872687108B0787F28AE18AE2
:10128000148A138AC6010E94BA0C8FB78983F89416
:10129000F601258530E0C901A3E0880F991FAA95C2
:1012A000E1F7820F931F8255984F908F878B86EFBF
:1012B00097E0968B858BE091F607F091F707019008
:1012C000F081E02DB601099589818FBF0F90DF91E4
:1012D000CF911F910F91FF90EF90DF90CF900895E5
:1012E000CF92DF92EF92FF920F931F93CF93DF93F2
:1012F000CDB7DEB7A1970FB6F894DEBF0FBECDBF56
:101300006B017C011E8A1F8A188E198E1A8E1B8E05
:101310001C8E1D8E1B8A1C821B821E821D8281E8F0
:1013200091E09A8389831F82198618868E010F5F48
:101330001F4FC80160E070E041E050E00E94750876
:10134000CE010F96B701A6010E94580C85E199E0E5
:101350009D8B8C8B19A308A381E08B8B85E098E093
:10136000BE01615F7F4F0E942D0BC8010E940F09D3
:10137000A1960FB6F894DEBF0FBECDBFDF91CF911F
:101380001F910F91FF90EF90DF90CF900895FC0197
:10139000262F30E0C90153E0880F991F5A95E1F7D5
:1013A000820F931F8255984F908F878B6687089581
:1013B0008091FF07813011F40E94D30D08950F939F
:1013C0001F93CF93DF9300D00F92CDB7DEB78C0180
:1013D0008FB78983F894E0910008F091010821E02B
:1013E000E017F10721F08585861708F020E0898154
:1013F0008FBFC8012B836A830E94FF076A81F801AF
:10140000668765878FB78983F894C8010E94E407CF
:1014100089818FBF2B81222389F08FB78983F8942C
:101420000E94BA070E94880F8091020890910308D9
:101430000E946C0F89818FBF0E94D8090F900F9076
:101440000F90DF91CF911F910F910895CF93DF936C
:101450000F92CDB7DEB78FB78983F8940E94BA0791
:1014600020910008309101088091020890910308B2
:101470002817390751F00E94880F80910208909137
:1014800003080E946C0F0E94D80989818FBF0F90BA
:10149000DF91CF910895EF92FF920F931F93CF9317
:1014A000DF930F92CDB7DEB77C018FB78983F894B5
:1014B0000091000810910108C7010E94FF0789816F
:1014C0008FBFE016F10611F40E94260A0F90DF91FB
:1014D000CF911F910F91FF90EF9008950F931F935D
:1014E000CF93DF930F92CDB7DEB78C018FB789838F
:1014F000F894E091F607F091F7070280F381E02D70
:1015000086EF97E0B8010995C8010E94E407D80169
:101510001D964C911D97242F30E0C90153E0880F90
:10152000991F5A95E1F7820F931F8255984F58964D
:101530009C938E93579756969C938E935597E091D4
:101540000008F09101088685481728F00E94880F4E
:10155000C8010E946C0FE0910008F0910108D801C9
:101560001D969C911D978585891710F40E94260A67
:1015700089818FBF0F90DF91CF911F910F910895B7
:10158000CF93DF93EC010E9470058A819B810097C5
:1015900079F0EF81F885309759F081E090E00E8086
:1015A00002C0880F991F0A94E2F79081982B9083CC
:1015B000DF91CF910895CF93DF93EC010E940A054C
:1015C0008A819B81009781F4EF81F885309761F0E3
:1015D00081E090E00E8002C0880F991F0A94E2F724
:1015E0008095908198239083DF91CF910895FC019D
:1015F00066830895FC01708767830895DC01129665
:10160000ED91FC91139714962D913C911597CF0174
:1016100040E05585541710F0452FCF01E217F3072E
:1016200021F00190F081E02DF4CF08950E94910700
:101630000E948C0485E098E00E94260B0E94070F10
:101640000E94690E08950E94FD0C0895FC01128607
:1016500016821782108611860895CF92DF92EF923C
:10166000FF920F931F93CF93DF930F92CDB7DEB707
:101670006C017B018FB78983F894F6010281138195
:10168000CB010E949905C601B7010E944C05F701E4
:1016900087819085A185B28583879487A587B68742
:1016A00001151105D1F00E94300EF7010781108558
:1016B00021853285601B710B820B930B1616170662
:1016C00018061906ACF40E94200EDC01CB01F601CD
:1016D00086839783A087B1870BC0F60186839783A3
:1016E000A087B187BC01CD010E944E0E0E94DA0D89
:1016F000F70184818260848389818FBF0F90DF919D
:10170000CF911F910F91FF90EF90DF90CF900895B0
:101710000F931F93CF93DF930F92CDB7DEB78C015A
:101720008FB78983F894C8010E94D604F80182819A
:101730009381009711F40E94EA0D89818FBF0F9069
:10174000DF91CF911F910F910895CF92DF92EF9289
:10175000FF920F931F93CF93DF938C010E94620E31
:10176000D8011296ED91FC9113978FEFC82E8FEF51
:10177000D82E8FEFE82E8FE7F82E3DC0248121FF71
:1017800037C04385548565857685E8018E819F81C4
:10179000A885B98584179507A607B707D0F0822FCB
:1017A0008460848380FF05C0822F8C608D7F84835A
:1017B0001FC087819085A185B28583879487A5877F
:1017C000B6878C159D05AE05BF0590F46C017D01B3
:1017D0000FC0481B590B6A0B7B0B438754876587E7
:1017E00076874C155D056E057F0510F46A017B0157
:1017F0000190F081E02D309709F6F801C281D38184
:101800001CC08C8182FF0EC069897A89ED81FE81BE
:101810008F85988909958C818B7F8C8380FF02C08E
:10182000BE0102C060E070E00990D881C02D611552
:10183000710519F0C8010E94880B209711F70E94CA
:10184000480EDC01CB018C159D05AE05BF0530F0BF
:10185000E8018E839F83A887B98782CFDFEFCD16FB
:10186000DFEFDD06DFEFED06DFE7FD0618F00E9493
:10187000EA0D0FC0C80ED91EEA1EFB1EC701B60135
:101880000E944E0EDC01CB01F80186839783A0876E
:10189000B187DF91CF911F910F91FF90EF90DF9073
:1018A000CF900895BC0185E098E00E94880B0895D0
:1018B0000F931F93CF93DF93EC01CB01BA0121E784
:1018C00032E040E050E00E94B9116B5F7F4F8F4FD4
:1018D0009F4F2AE030E040E050E00E94D81189019B
:1018E0009A0109501040204030400F831887298703
:1018F0003A87DF91CF911F910F910895CF92DF9298
:10190000EF92FF920F931F93CF936C01C62FBA01F2
:10191000A9010E94580CF60116830583F28AE18A18
:10192000CC2319F481E0848302C0F60114828091F3
:10193000000890910108F601908B878785E098E078
:10194000B6010E942D0BCF911F910F91FF90EF9048
:10195000DF90CF9008951092080810920708109217
:101960000A081092090889E891E09093060880938C
:1019700005080895CF93DF93EC015F854889EC81DA
:10198000FD8120E030E06FEF07C0AE81BF81A20F84
:10199000B31F6C932F5F3F4F8885998528173907B0
:1019A000A0F35083DF0111974C93DF0112971C9233
:1019B000DF01139780E88C93DF0114971C92DF01FD
:1019C000159782E08C9311978F5F8831D9F7DF01EB
:1019D0005B9789898C93DF015C978A898C93DF01FF
:1019E0005D978AE18C9311978F5F8032D9F7B39717
:1019F000FD83EC83DF91CF9108950E94C80D0E9472
:101A0000D60D81E08093FF070E94BA0780910208FB
:101A10009091030890930108809300080E94DA0DCA
:101A20000E94D00DA0910008B09101081496CD91AC
:101A3000CDBFDD91DEBFFF91EF91DF91CF91BF91DF
:101A4000AF919F918F917F916F915F914F913F9156
:101A50002F911F910F91FF90EF90DF90CF90BF904B
:101A6000AF909F908F907F906F905F904F903F903E
:101A70002F901F900F900FBE0F90189508950F9202
:101A80000FB6F8940F921F9211242F923F924F920B
:101A90005F926F927F928F929F92AF92BF92CF92FE
:101AA000DF92EF92FF920F931F932F933F934F93E9
:101AB0005F936F937F938F939F93AF93BF93CF93D6
:101AC000DF93EF93FF93A0910008B0910108149663
:101AD0000DB60D920EB60D928091020890910308FA
:101AE0009093010880930008A0910008B09101082C
:101AF0001496CD91CDBFDD91DEBFFF91EF91DF91C7
:101B0000CF91BF91AF919F918F917F916F915F9195
:101B10004F913F912F911F910F91FF90EF90DF9088
:101B2000CF90BF90AF909F908F907F906F905F907D
:101B30004F903F902F901F900F900FBE0F901895D1
:101B40001F920F920FB60F9211242F933F934F9332
:101B50005F936F937F938F939F93AF93BF93EF9315
:101B6000FF9385E098E00E94A50B0E94950FFF91DE
:101B7000EF91BF91AF919F918F917F916F915F9105
:101B80004F913F912F910F900FBE0F901F9018957E
:101B90005A98529AE9E6F0E0808183608083089544
:101BA000E098E89A08955A985A9A08958CE080939C
:101BB000810008951092850010928400B198EFE69C
:101BC000F0E0808182608083E1E8F0E080818460E1
:101BD00080830895B198EFE6F0E080818D7F808367
:101BE000E1E8F0E080818B7F808310928500109285
:101BF000840010928900109288000895CF93DF939B
:101C000000D000D0CDB7DEB78091840090918500E0
:101C10009C838B8380918400909185009A83898333
:101C20002B813C8189819A812817390769F78B813B
:101C30009C810F900F900F900F90DF91CF9108959E
:101C4000AB01BC01E8E8F0E080819181841B950B39
:101C50009183808380819181BC0180E090E0089530
:101C60000F931F930E94FE0D009188001091890030
:101C70008017910728F4081B190B20E030E003C0FF
:101C800000E010E09801B801C9011F910F9108957B
:101C90000E94FE0DBC0180E090E00895DC01CB01C4
:101CA000803020E0920721E0A20720E0B20710F088
:101CB0008FEF9FEF9093890080938800BC0180E0B4
:101CC00090E008958FEF9FEF9093890080938800B4
:101CD000089514BC15BC15BA10926E00109210082D
:101CE000109211081092120810921308089515BA54
:101CF00016BC85B5826085BDEEE6F0E0808181602E
:101D000080830895CF93DF930F92CDB7DEB78FB75F
:101D10008983F89485B58D7F85BD86B595B592602C
:101D200095BD99819FBF90E00F90DF91CF9108956D
:101D3000CF93DF930F92CDB7DEB78FB78983F89437
:101D40008091100890911108A0911208B091130889
:101D50000196A11DB11D8093100890931108A093C6
:101D60001208B093130889818FBF0F90DF91CF9134
:101D700008951F920F920FB60F9211242F933F9345
:101D80004F935F936F937F938F939F93AF93BF9383
:101D9000EF93FF930E94980EFF91EF91BF91AF9147
:101DA0009F918F917F916F915F914F913F912F9173
:101DB0000F900FBE0F901F9018950F931F93CF9306
:101DC000DF938C01EB01CB010E94FF07C801BE012C
:101DD0000E94C00A0D8B1E8BDF91CF911F910F9136
:101DE0000895CF93DF93EB018D899E89DC01ED91FE
:101DF000FC910280F381E02D0995CE010E94E40759
:101E00008F89988D9E8B8D8BDF91CF910895CF9385
:101E1000DF93C0E0D0E0BE0183E0660F771F8A95B4
:101E2000E1F7665E774FFB011582148217821682F6
:101E300084E198E00E944C052196C830D10559F7FD
:101E4000DF91CF91089589E591E0909315088093F3
:101E50001408109217081092160810921908109280
:101E600018080895FC01A0910008B091010895851B
:101E70001D968C911D97981778F085899689FC019D
:101E800042815381248135814217530729F021E093
:101E900020936E080E949F050895CF93DF93EC0175
:101EA0004A855B8560E070E08BE598E00E94580C05
:101EB00081E080935F0810926D0810926C0882E3B5
:101EC0009FE09093610880936008D0936B08C09363
:101ED0006A08DF91CF91089520915A082223B9F41E
:101EE000DC015596ED91FC91569722813381448116
:101EF00055812417350759F00E944D0F85E098E071
:101F00006BE578E00E942D0B81E080935A080895DC
:101F100080915A08882341F085E098E06BE578E0ED
:101F20000E94880B10925A08089580916E088823A9
:101F300021F00E94260A10926E08089510926208FD
:101F40001092630810926408109265081092660857
:101F500010926708109268081092690810925F0842
:101F60000895E1ECF0E02081286120832081206C3D
:101F700020839093700880936F0880E00895E1ECCF
:101F8000F0E08081877E808380818F73808380E012
:101F900008950F931F93CF93DF930F92CDB7DEB7C2
:101FA000DC018B0160E020E030E080E090E02EC0BA
:101FB0007FB77983F8941D967C911D971C96EC91C0
:101FC0001C977E17E9F05096ED91FC915197E70F21
:101FD000F11D7081FA01E80FF91F70831D967C9145
:101FE0001D977F5F1D967C931D971B96EC911B9709
:101FF0007E1718F01D961C921D972F5F3F4F01C052
:1020000061E079817FBF613021F0019680179107EF
:1020100079F6C9010F90DF91CF911F910F9108952B
:10202000FC01248935894689578960E472E48FE090
:1020300090E00E94D81121503040E1ECF0E0808126
:1020400010821092C0003093C5002093C40080839A
:102050000895EF920F931F93FC01DA01633839F171
:10206000643838F46138C9F06238F0F4603871F5DA
:1020700007C0653811F16538E8F0663839F521C0D8
:102080008D919D910D90BC91A02D848B958BA68BED
:10209000B78BCF010E94101019C0518B408B138B4E
:1020A000028B2387E08612C08C91808F0FC0528FE5
:1020B000418F0CC08C91878709C08091C1008061DD
:1020C00003C08091C1008F7E8093C10080E090E0CA
:1020D0001F910F91EF900895FC01118612861486CE
:1020E000158617868AE0808F128E118E168640E044
:1020F00051EE60E070E0448B558B668B778B1092CD
:10210000C0001092C100CF010E94101086E08093A1
:10211000C2000895CF93DF930F92CDB7DEB7FC01D5
:102120008FB78983F8948285A289B389A80FB11DDE
:102130008C918093C60082858F5F9085891708F007
:1021400080E0828789818FBF0F90DF91CF910895C2
:10215000CF92DF92EF92FF920F931F93CF93DF9373
:102160000F92CDB7DEB7DC016B017A0119965C9155
:1021700019971A966C911A9730E000E010E080E011
:1021800090E02AC02FB72983F89419964C9119979B
:10219000242F2F5F18967C911897271708F020E0BE
:1021A0001A967C911A97271789F0F701E80FF91F03
:1021B00070815296ED91FC915397E40FF11D70835D
:1021C00019962C9319970F5F1F4F01C031E0298199
:1021D0002FBF313021F001968C159D0599F65617C9
:1021E00061F48FB78983F8948091C00085FF03C0A4
:1021F000CD010E948A1089818FBFC8010F90DF91A5
:10220000CF911F910F91FF90EF90DF90CF900895A5
:102210000F931F93CF93DF930F92CDB7DEB78C014F
:102220009091C6009983D8011C962C911C97822FFF
:102230008F5F1B963C911B97831708F080E0D801B5
:102240005096ED91FC915197E20FF11D90831C96F1
:102250008C931C971D969C911D97891771F48F5F25
:102260001D968C931D971B969C911B97891710F0B8
:102270001D961C9281E0F8018687D8011F968C91EB
:102280001F97882361F0ED91FC910084F185E02D8A
:10229000C80161E070E0AE014F5F5F4F0995998121
:1022A000F801808D981739F4018CF28DE02D30976C
:1022B00011F0C80109950F90DF91CF911F910F91F7
:1022C00008951F920F920FB60F9211242F933F93F0
:1022D0004F935F936F937F938F939F93AF93BF932E
:1022E000EF93FF9380916F08909170080E940811FE
:1022F000FF91EF91BF91AF919F918F917F916F91DE
:102300005F914F913F912F910F900FBE0F901F90B3
:102310001895FC0131852285321711F00E948A1030
:1023200008951F920F920FB60F9211242F933F938F
:102330004F935F936F937F938F939F93AF93BF93CD
:10234000EF93FF9380916F08909170080E9489111C
:10235000FF91EF91BF91AF919F918F917F916F917D
:102360005F914F913F912F910F900FBE0F901F9053
:102370001895629FD001739FF001829FE00DF11DBF
:10238000649FE00DF11D929FF00D839FF00D749FEF
:10239000F00D659FF00D9927729FB00DE11DF91F9B
:1023A000639FB00DE11DF91FBD01CF0111240895F8
:1023B000A1E21A2EAA1BBB1BFD010DC0AA1FBB1F49
:1023C000EE1FFF1FA217B307E407F50720F0A21BBB
:1023D000B30BE40BF50B661F771F881F991F1A9428
:1023E00069F760957095809590959B01AC01BD0152
:1023F000CF010895EE0FFF1F0590F491E02D099491
:04240000F894FFCF7E
:102404002F6465762F747479003A20000A004D49D0
:10241400004D43004D520053490053506F00535038
:102424006500534600544500544900545300435337
:102434000053430053544152540A002F6465762FCD
:102444006E756C6C000000000079047F04810483C5
:102454000486048904000000004C05D60400000032
:102464000070050A05FF00010102020202030303D2
:10247400030303030300000000CF00CF00000000AB
:1024840000C00ADB0A000000004C05D6040000006E
:0E249400006C10B10FBF0FC90FA81029100067
:00000001FF
