:100000000C943B000C94C5050C9463000C946300A5
:100010000C9463000C9463000C9463000C946300D4
:100020000C9463000C9463000C9463000C942606FB
:100030000C9463000C9463000C9463000C946300B4
:100040000C941E070C9463000C94420C0C946300F7
:100050000C94720C0C9463000C9463000C94630079
:100060000C9463000C9463005701B50131059407AB
:100070000F089008800A11241FBECFEFD8E0DEBF22
:10008000CDBF11E0A0E0B1E0E4EEFBE102C00590DD
:100090000D92A038B107D9F717E0A0E8B1E001C090
:1000A0001D92A230B107E1F710E0C6E7D0E004C02E
:1000B0002297FE010E94EC0DC836D107C9F70E94B5
:1000C0000A010C94F00D0C94000083B7817F83BF6C
:1000D000F89483B7816083BF7894889583B78E7FC7
:1000E00083BF7894F2CF0895FC0180E090E002C0D5
:1000F0006193019684179507D9F7089580E091E000
:1001000060E270E04DEC53E020E430E00DEE13E0EF
:100110000E94160A82EB93E00E94920A88E090E027
:100120009093300480932F04EDE2F4E090932E043A
:1001300080932D0484E090E09787868780E190E0AB
:100140009587848782E090E0938F828F80E290E0B1
:10015000918F808F17A216A215A214A28DE594E0AC
:100160006FE574E0AF010E94160D8DE594E064E048
:1001700070E00E94430DEC016AEA44E050E00E9406
:100180007400CE010E94800D8DE594E068E070E07F
:100190000E94430DEC016BEB48E050E00E947400BC
:1001A000CE010E94800D8DE594E06CE070E00E942D
:1001B000430DEC016CEC4CE050E00E947400CE0169
:1001C0000E94800D8DE594E068E170E00E94430D8F
:1001D000EC016DED48E150E00E947400CE010E94F8
:1001E000800D8DE594E060E270E00E94430DEC012B
:1001F0006EEE40E250E00E947400CE010E94800D3D
:1002000080EC96E060E049E051E02CE030E00E94B4
:100210006509ABCFCF92DF92EF92FF920F931F93BE
:10022000CF93DF930E94CF03C0E8D1E0CE0169E90C
:1002300071E040E051E021E00EE710E07E010E9415
:10024000A40229E9C22E22E0D22EC60162EB72E09E
:1002500040E051E020E005E610E0EE24FF240E949B
:10026000A402CE010E942703C6010E942703C8EB07
:10027000D3E080E091E09093B9038093B803CE017E
:1002800006970E944D0BBE01645070408FEE95E0C2
:100290000E9440020E94DC0380E090E0DF91CF9159
:1002A0001F910F91FF90EF90DF90CF90089584E71A
:1002B00091E09093B3038093B203E3E3F4E08CE323
:1002C00091E09183808313821282158214823C967E
:1002D00044E0E336F407A9F708952EE131E0FC018C
:1002E00037832683089580E0089580E0089580E0B4
:1002F00090E0089580E090E0089580E090E0089517
:100300008EE191E09093FC058093FB058FEE95E0E4
:1003100067EF75E00E9440020895CF93DF93E0916C
:10032000F105F091F2053097B9F4E0E0F0E015C086
:10033000DC01C681D7813D91332331F029912223FD
:1003400031F03217C1F303C02881222351F002801B
:10035000F381E02D309719F03297309749F7E5EFA8
:10036000F5E0CF01DF91CF9108958CE391E0909378
:10037000F0058093EF051092F2051092F1051092AE
:10038000F4051092F3058CE291E09093F6058093CA
:10039000F5050895CF93DF939C01FB01A281B38102
:1003A000109729F08081918111969C938E93C08142
:1003B000D181209711F0BB83AA83D90112968D9128
:1003C0009C911397E817F90721F41396DC93CE93C9
:1003D0001297D90114968D919C911597E817F907FA
:1003E00031F48281938115969C938E931497118298
:1003F000108213821282DF91CF910895CF93DF9301
:10040000DC01FB0112962D913C9113976217730743
:1004100081F414968D919C9115976817790749F48A
:1004200013961C921E92129715961C921E92149768
:1004300024C06081718182819381EB019B838A83D7
:1004400042815381EA0179836883E217F30731F42B
:100450008081918113969C938E93129714968D911F
:100460009C911597E817F90721F415965C934E9324
:1004700014971182108213821282DF91CF91089516
:10048000CF93DF93FC01DB0182819381009761F4BC
:10049000738362837583648313961C921E921297F2
:1004A00011961C921E920DC0C481D58179836883F8
:1004B0001396DC93CE93129711961C921E9275831D
:1004C0006483DF91CF910895CF93DF93FC01DB012B
:1004D000228133812115310561F473836283758331
:1004E000648313967C936E93129711967C936E930C
:1004F00011C084819581EC017983688313969C9364
:100500008E93129711963C932E9375836483F90111
:1005100073836283DF91CF910895FC011182108271
:10052000138212820895FC01A281B381109759F0C1
:100530008D919C9193838283A481B5818D919C91AF
:100540001197958384830895CF92DF92EF92FF9263
:100550000F931F93CF93DF930F92CDB7DEB76C014C
:10056000CB013091FD05F60134873F5F3093FD05E7
:1005700077836683840F951F0197958384835187C2
:10058000408784E090E09387828725872687108BB9
:100590000787F28AE18A148A138AC6010E944005FD
:1005A0008FB78983F894F601258530E0C901A3E06F
:1005B000880F991FAA95E1F7820F931F8659994FCB
:1005C000908F878B82EB96E0968B858BE091B206BD
:1005D000F091B3060190F081E02DB6010995898173
:1005E0008FBF0F90DF91CF911F910F91FF90EF90F0
:1005F000DF90CF9008958091BB06813011F40E9466
:1006000059060895CF93DF930F92CDB7DEB78FB71A
:100610008983F8940E944B082091BC063091BD0656
:100620008091BE069091BF062817390751F00E94AD
:10063000F9078091BE069091BF060E94DD070E94D7
:10064000FB0289818FBF0F90DF91CF9108950F93A7
:100650001F93CF93DF930F92CDB7DEB78C018FB787
:100660008983F894E091B206F091B3060280F38199
:10067000E02D82EB96E0B8010995C8010E9475084B
:10068000D8011D964C911D97242F30E0C90153E0ED
:10069000880F991F5A95E1F7820F931F8659994F3A
:1006A00058969C938E93579756969C938E935597F6
:1006B000E091BC06F091BD068685481728F00E949F
:1006C000F907C8010E94DD07E091BC06F091BD0664
:1006D000D8011D969C911D978585891710F40E945D
:1006E000020389818FBF0F90DF91CF911F910F91EE
:1006F0000895CF93DF93EC010E9464028A819B816D
:10070000009779F0EF81F885309759F081E090E01B
:100710000E8002C0880F991F0A94E2F79081982BEF
:100720009083DF91CF910895CF93DF93EC010E94E6
:10073000FE018A819B81009781F4EF81F8853097D3
:1007400061F081E090E00E8002C0880F991F0A944A
:10075000E2F78095908198239083DF91CF9108955F
:10076000FC0166830895FC01708767830895DC01AE
:100770001296ED91FC91139714962D913C9115973B
:10078000CF0140E05585541710F0452FCF01E217F7
:10079000F30721F00190F081E02DF4CF08950E943D
:1007A00022080E9480018EEF95E00E94DF030E94E4
:1007B00042070E94EF0608950E9483050895FC01F8
:1007C000128616821782108611860895CF92DF92C4
:1007D000EF92FF920F931F93CF93DF930F92CDB7BA
:1007E000DEB76C017B018FB78983F894F601028133
:1007F0001381CB010E948D02C601B7010E94400205
:10080000F70187819085A185B28583879487A58725
:10081000B68701151105D1F00E94B606F7010781D0
:10082000108521853285601B710B820B930B161688
:10083000170618061906ACF40E94A606DC01CB01C7
:10084000F60186839783A087B1870BC0F601868364
:100850009783A087B187BC01CD010E94D4060E9476
:100860006006F70184818260848389818FBF0F9045
:10087000DF91CF911F910F91FF90EF90DF90CF907C
:1008800008950F931F93CF93DF930F92CDB7DEB7E9
:100890008C018FB78983F894C8010E94CA01F801BE
:1008A00082819381009711F40E94700689818FBF25
:1008B0000F90DF91CF911F910F910895CF92DF920A
:1008C000EF92FF920F931F93CF93DF938C010E94BF
:1008D000E806D8011296ED91FC9113978FEFC82E80
:1008E0008FEFD82E8FEFE82E8FE7F82E3DC02481B2
:1008F00021FF37C04385548565857685E8018E8163
:100900009F81A885B98584179507A607B707D0F0FA
:10091000822F8460848380FF05C0822F8C608D7F4E
:1009200084831FC087819085A185B2858387948742
:10093000A587B6878C159D05AE05BF0590F46C01A3
:100940007D010FC0481B590B6A0B7B0B43875487F3
:10095000658776874C155D056E057F0510F46A0185
:100960007B010190F081E02D309709F6F801C281FA
:10097000D3811CC08C8182FF0EC069897A89ED8188
:10098000FE818F85988909958C818B7F8C8380FF70
:1009900002C0BE0102C060E070E00990D881C02DA5
:1009A0006115710519F0C8010E944104209711F7E3
:1009B0000E94CE06DC01CB018C159D05AE05BF055E
:1009C00030F0E8018E839F83A887B98782CFDFEF5D
:1009D000CD16DFEFDD06DFEFED06DFE7FD0618F0F1
:1009E0000E9470060FC0C80ED91EEA1EFB1EC7016A
:1009F000B6010E94D406DC01CB01F80186839783FF
:100A0000A087B187DF91CF911F910F91FF90EF9059
:100A1000DF90CF9008950F931F93CF93DF93EC0156
:100A2000CB01BA0121E732E040E050E00E94950D91
:100A30006B5F7F4F8F4F9F4F2AE030E040E050E0E8
:100A40000E94C80D89019A01095010402040304091
:100A50000F83188729873A87DF91CF911F910F91D4
:100A6000089510920106109200061092030610924B
:100A7000020684E591E09093FF058093FE050895BA
:100A8000CF93DF93EC015F854889EC81FD8120E005
:100A900030E06FEF07C0AE81BF81A20FB31F6C9330
:100AA0002F5F3F4F8885998528173907A0F350831A
:100AB000DF0111974C93DF0112971C92DF0113970E
:100AC00080E88C93DF0114971C92DF01159782E078
:100AD0008C9311978F5F8831D9F7DF015B978989F4
:100AE0008C93DF015C978A898C93DF015D978AE1A3
:100AF0008C9311978F5F8032D9F7B397FD83EC8386
:100B0000DF91CF9108950E944E060E945C0681E01D
:100B10008093BB060E944B088091BE069091BF0651
:100B20009093BD068093BC060E9460060E94560604
:100B3000A091BC06B091BD061496CD91CDBFDD91BC
:100B4000DEBFFF91EF91DF91CF91BF91AF919F9168
:100B50008F917F916F915F914F913F912F911F9155
:100B60000F91FF90EF90DF90CF90BF90AF909F904C
:100B70008F907F906F905F904F903F902F901F903D
:100B80000F900FBE0F90189508950F920FB6F8941E
:100B90000F921F9211242F923F924F925F926F9269
:100BA0007F928F929F92AF92BF92CF92DF92EF92FD
:100BB000FF920F931F932F933F934F935F936F93E6
:100BC0007F938F939F93AF93BF93CF93DF93EF93D5
:100BD000FF93A091BC06B091BD0614960DB60D9280
:100BE0000EB60D928091BE069091BF069093BD0601
:100BF0008093BC06A091BC06B091BD061496CD9121
:100C0000CDBFDD91DEBFFF91EF91DF91CF91BF911D
:100C1000AF919F918F917F916F915F914F913F9194
:100C20002F911F910F91FF90EF90DF90CF90BF9089
:100C3000AF909F908F907F906F905F904F903F907C
:100C40002F901F900F900FBE0F9018951F920F922C
:100C50000FB60F9211242F933F934F935F936F938F
:100C60007F938F939F93AF93BF93EF93FF938EEFF9
:100C700095E00E945E040E940608FF91EF91BF91EB
:100C8000AF919F918F917F916F915F914F913F9124
:100C90002F910F900FBE0F901F9018955A98529A4F
:100CA000E9E6F0E08081836080830895E098E89A27
:100CB00008955A985A9A08958CE080938100089577
:100CC0001092850010928400B198EFE6F0E08081E8
:100CD00082608083E1E8F0E0808184608083089511
:100CE000B198EFE6F0E080818D7F8083E1E8F0E06D
:100CF00080818B7F808310928500109284001092F7
:100D00008900109288000895CF93DF9300D000D01F
:100D1000CDB7DEB780918400909185009C838B8352
:100D200080918400909185009A8389832B813C81F6
:100D300089819A812817390769F78B819C810F90E7
:100D40000F900F900F90DF91CF910895AB01BC01F0
:100D5000E8E8F0E080819181841B950B918380838A
:100D600080819181BC0180E090E008950F931F93F2
:100D70000E948406009188001091890080179107D5
:100D800028F4081B190B20E030E003C000E010E05D
:100D90009801B801C9011F910F9108950E9484061E
:100DA000BC0180E090E00895DC01CB01803020E0C0
:100DB000920721E0A20720E0B20710F08FEF9FEF2B
:100DC0009093890080938800BC0180E090E00895B2
:100DD0008FEF9FEF9093890080938800089514BC53
:100DE00015BC15BA10926E001092090610920A06F0
:100DF00010920B0610920C060895CF93DF930F927A
:100E0000CDB7DEB78FB78983F894809109069091AA
:100E10000A06A0910B06B0910C060196A11DB11D0A
:100E20008093090690930A06A0930B06B0930C06D4
:100E300089818FBF0F90DF91CF9108951F920F92FC
:100E40000FB60F9211242F933F934F935F936F939D
:100E50007F938F939F93AF93BF93EF93FF930E94E2
:100E6000FD06FF91EF91BF91AF919F918F917F917F
:100E70006F915F914F913F912F910F900FBE0F9007
:100E80001F901895CF93DF93C0E0D0E0BE0183E0C0
:100E9000660F771F8A95E1F76D5E794FFB0115822A
:100EA0001482178216828DE096E00E9440022196FD
:100EB000C830D10559F7DF91CF9108950F931F9353
:100EC000CF93DF930F92CDB7DEB78FB78983F894B6
:100ED00000910F06109110068DE096E0B8010E9477
:100EE000CA0189818FBFC8010F90DF91CF911F91F7
:100EF0000F9108950F931F93CF93DF930F92CDB768
:100F0000DEB78C018FB78983F894C8010E960E94D2
:100F10004002C8010E94DB0889818FBF0F90DF91DA
:100F2000CF911F910F9108958CE391E090930E065D
:100F300080930D061092100610920F061092120662
:100F4000109211060895FC01A091BC06B091BD0657
:100F500095851D968C911D97981778F085899689AF
:100F6000FC0142815381248135814217530729F0C6
:100F700021E0209367060E9493020895CF93DF93A8
:100F8000EC014A855B8560E070E084E596E00E94B4
:100F90000B0581E080935806109266061092650654
:100FA00083EA97E090935A0680935906D09364069B
:100FB000C0936306DF91CF910895209153062223B9
:100FC000B9F4DC015596ED91FC915697228133815D
:100FD000448155812417350759F00E94BE078EEFD2
:100FE00095E064E576E00E94E60381E08093530695
:100FF000089580915306882341F08EEF95E064E5D3
:1010000076E00E944104109253060895809167068D
:10101000882321F00E94020310926706089510921F
:101020005B0610925C0610925D0610925E061092AE
:101030005F0610926006109261061092620610928E
:10104000580608950F931F93CF93DF93109269066C
:1010500000E010E0E80183E0CC0FDD1F8A95E1F7A6
:10106000C00FD11FC659D94FCE01602F0E94B003C7
:10107000CE0169E676E00E94B3030F5F1F4F083090
:10108000110541F78091690680936806DF91CF9141
:101090001F910F91089520916906E22FF0E0DF0182
:1010A00044E0B595A7954A95E1F7A85ABE4F8C91B3
:1010B0008F3F31F4EF70F070E85AFE4F808101C02D
:1010C0008C5F90E0FC0133E0EE0FFF1F3A95E1F7F3
:1010D000E80FF91FE659F94F828193819093BF067B
:1010E0008093BE06209368060895BC01DC011D961E
:1010F0002C9130E0C90153E0880F991F5A95E1F710
:10110000820F931F8659994FDC01ED91FC9101905C
:10111000F081E02D09958091690680936806089515
:101120001092B5061092B4061092B7061092B60649
:10113000E2EBF6E08CE491E09093B3068093B20684
:10114000168210861782EAE6F6E0282F892F13828E
:101150001282158214822083818316821086178260
:10116000399696E0E23BF90791F708950F931F93A4
:10117000CF93DF93EC010E94B7038C01CE01B8013D
:101180000E940209E091BC06F091BD0681E0D80101
:101190001D962C911D979585921708F080E0DF91A0
:1011A000CF911F910F910895FC0172876187548739
:1011B000438715860895CF93DF930F92CDB7DEB79F
:1011C000FC018FB78983F89482819381009759F449
:1011D00081859285238534858217930740F4019693
:1011E0009287818704C0CF010E94B60801C080E0C9
:1011F00099819FBF882311F00E9402030F90DF9115
:10120000CF910895CF93DF93EB018D899E89DC0107
:10121000ED91FC910280F381E02D0995CE010E94B1
:1012200075088F89988D9E8B8D8BDF91CF91089556
:10123000FB01803C19F08B3D59F404C08BED808399
:101240008CED02C080838DED818382E090E0089573
:10125000808381E090E00895AF92BF92CF92DF92B9
:10126000EF92FF920F931F93CF93DF9300D0CDB7F0
:10127000DEB75C01862F8E010F5F1F4FB8010E9401
:1012800018096C01EE24FF2410C0D5018D919C91AA
:10129000DC01ED91FC91A8014E0D5F1D0084F185EC
:1012A000E02DB6010995E80EF91EEC14FD0468F373
:1012B0000F900F90DF91CF911F910F91FF90EF90C2
:1012C000DF90CF90BF90AF9008958F929F92AF9292
:1012D000BF92CF92DF92EF92FF920F931F93CF9323
:1012E000DF9300D0CDB7DEB76C01062F5A0179012C
:1012F00080EC8983D6018D919C91DC01ED91FC916C
:101300000084F185E02D61E070E0AE014F5F5F4F3A
:101310000995009779F3E114F10441F4F50103C054
:101320000894E11CF11C81918823D1F7C601602F3C
:101330000E942C09802E99240F2D1127C601602FA1
:101340000E942C09C6016E2D0E942C090E0D111D44
:10135000080D191D0CC0F50160810E942C09D501F2
:101360008D915D01080F111D0894E108F108C60177
:10137000E114F10481F7612F0E942C09C601602F4E
:101380000E942C0980EC8983F60180819181DC0127
:10139000ED91FC910084F185E02D61E070E0AE01FB
:1013A0004F5F5F4F0995009779F30F900F90DF9192
:1013B000CF911F910F91FF90EF90DF90CF90BF9052
:1013C000AF909F908F900895EF92FF920F931F938D
:1013D000CF93DF938C010E945E07EC010097F9F038
:1013E000D801ED91FC910284F385E02DC80166E8F7
:1013F00070E040E050E020E030E000E010E0EE245B
:10140000FF2409958DE090ED9F838E831D821C82C1
:101410008091FE069091FF06BE010E947A07DF913F
:10142000CF911F910F91FF90EF900895AF92BF92CF
:10143000CF92DF92EF92FF920F931F93CF93DF93A0
:101440000F92CDB7DEB75B016A0179010E948D0171
:101450009093DD068093DC061092FF061092FE0644
:101460009093C1068093C00682EC96E060E070E045
:1014700041E050E00E94D4088091DC069091DD06A6
:10148000DC01ED91FC910284F385E02D61E870E0D0
:10149000A601950109958091DC069091DD06DC019D
:1014A000ED91FC910284F385E02D63E870E044EE59
:1014B00059E020E030E000E010E0EE24FF24099540
:1014C00080EC89838091DC069091DD06DC01ED9152
:1014D000FC910284F385E02D62E870E0AE014F5F7D
:1014E0005F4F21E030E009950F90DF91CF911F9180
:1014F0000F91FF90EF90DF90CF90BF90AF90089545
:101500001092C5061092C4061092C7061092C60625
:10151000E4ECF6E08CE491E09293829316821086DC
:1015200017820895E1ECF0E020812861208320817A
:10153000206C2083909301078093000780E008953A
:10154000E1ECF0E08081877E808380818F738083EF
:1015500080E008950F931F93CF93DF930F92CDB741
:10156000DEB7DC018B0160E020E030E080E090E05D
:101570002EC07FB77983F8941D967C911D971C9699
:10158000EC911C977E17E9F05096ED91FC915197E4
:10159000E70FF11D7081FA01E80FF91F70831D96A6
:1015A0007C911D977F5F1D967C931D971B96EC91F8
:1015B0001B977E1718F01D961C921D972F5F3F4FAB
:1015C00001C061E079817FBF613021F00196801711
:1015D000910779F6C9010F90DF91CF911F910F917B
:1015E0000895FC01248935894689578960E472E4AD
:1015F0008FE090E00E94C80D21503040E1ECF0E017
:10160000808110821092C0003093C5002093C400E6
:1016100080830895EF920F931F93FC01DA016338E2
:1016200039F1643838F46138C9F06238F0F4603860
:1016300071F507C0653811F16538E8F0663839F59D
:1016400021C08D919D910D90BC91A02D848B958B87
:10165000A68BB78BCF010E94F10A19C0518B408B2A
:10166000138B028B2387E08612C08C91808F0FC072
:10167000528F418F0CC08C91878709C08091C10027
:10168000806103C08091C1008F7E8093C10080E0A3
:1016900090E01F910F91EF900895FC011186128642
:1016A0001486158617868AE0808F128E118E168614
:1016B00040E051EE60E070E0448B558B668B778B99
:1016C0001092C0001092C100CF010E94F10A86E082
:1016D0008093C2000895CF93DF930F92CDB7DEB70A
:1016E000FC018FB78983F8948285A289B389A80FFA
:1016F000B11D8C918093C60082858F5F908589177C
:1017000008F080E0828789818FBF0F90DF91CF91B1
:101710000895CF92DF92EF92FF920F931F93CF9392
:10172000DF930F92CDB7DEB7DC016B017A0119961A
:101730005C9119971A966C911A9730E000E010E0CE
:1017400080E090E02AC02FB72983F89419964C9135
:101750001997242F2F5F18967C911897271708F058
:1017600020E01A967C911A97271789F0F701E80F65
:10177000F91F70815296ED91FC915397E40FF11D82
:10178000708319962C9319970F5F1F4F01C031E09A
:1017900029812FBF313021F001968C159D0599F6D6
:1017A000561761F48FB78983F8948091C00085FF44
:1017B00003C0CD010E946B0B89818FBFC8010F90C0
:1017C000DF91CF911F910F91FF90EF90DF90CF901D
:1017D00008950F931F93CF93DF930F92CDB7DEB78A
:1017E0008C019091C6009983D8011C962C911C976E
:1017F000822F8F5F1B963C911B97831708F080E028
:10180000D8015096ED91FC915197E20FF11D908314
:101810001C968C931C971D969C911D97891771F4AB
:101820008F5F1D968C931D971B969C911B97891714
:1018300010F01D961C9281E0F8018687D8011F9652
:101840008C911F97882361F0ED91FC910084F185C4
:10185000E02DC80161E070E0AE014F5F5F4F099578
:101860009981F801808D981739F4018CF28DE02D63
:10187000309711F0C80109950F90DF91CF911F911A
:101880000F9108951F920F920FB60F9211242F936C
:101890003F934F935F936F937F938F939F93AF93F8
:1018A000BF93EF93FF9380910007909101070E94EF
:1018B000E90BFF91EF91BF91AF919F918F917F9134
:1018C0006F915F914F913F912F910F900FBE0F90AD
:1018D0001F901895FC0131852285321711F00E9466
:1018E0006B0B08951F920F920FB60F9211242F9336
:1018F0003F934F935F936F937F938F939F93AF9398
:10190000BF93EF93FF9380910007909101070E948E
:101910006A0CFF91EF91BF91AF919F918F917F9151
:101920006F915F914F913F912F910F900FBE0F904C
:101930001F9018956F927F928F929F92AF92BF9255
:10194000CF92DF92EF92FF920F931F93CF93DF938B
:101950008C01EB01FA01690186E090E0C80ED91E06
:10196000CA01B6010E94B40D5B013E016E0E7F1EDE
:10197000F8011582148217821682EE24FF2482E079
:10198000882E912C800E911E0EC01D830C83C401E5
:10199000BE010E944002CC0DDD1DC615D70530F4F6
:1019A0000894E11CF11CEA14FB0479F7F801B182F8
:1019B000A082CE01DF91CF911F910F91FF90EF9008
:1019C000DF90CF90BF90AF909F908F907F906F905F
:1019D00008950F931F93CF93DF93EC010C811D812A
:1019E0000115110561F00296B8010E94CA018881B3
:1019F0009981019799838883C801069602C080E087
:101A000090E0DF91CF911F910F910895CF93DF93D5
:101A1000EC016650704002960E94400288819981D4
:101A2000019699838883DF91CF910895EF92FF9279
:101A30000F931F93CF93DF937C01142F052FC42F97
:101A4000D52F13C09D012A5F3F4FEA81FB812E9F56
:101A5000A0012F9F500D3E9F500D1124CE010496E2
:101A60009D010E949A0CBC012C96A881B981109707
:101A700049F7F70110830183DF91CF911F910F91F7
:101A8000FF90EF900895CF92DF92EF92FF920F9325
:101A90001F93CF93DF930F92CDB7DEB76C017B011D
:101AA00000E010E017C02FB72983F8948E159F052A
:101AB00048F084819581009729F0CF0104960E9417
:101AC000E90C02C080E090E029812FBF045F1F4F26
:101AD000009761F4D601ED91FC911197E00FF11F91
:101AE000808191810097F9F680E090E00F90DF917E
:101AF000CF911F910F91FF90EF90DF90CF900895BD
:101B0000CF93DF930F92CDB7DEB7BC018FB7898338
:101B1000F894FB013297808191810E94060D8981A2
:101B20008FBF0F90DF91CF910895629FD001739F77
:101B3000F001829FE00DF11D649FE00DF11D929F69
:101B4000F00D839FF00D749FF00D659FF00D9927A8
:101B5000729FB00DE11DF91F639FB00DE11DF91FCC
:101B6000BD01CF0111240895AA1BBB1B51E107C081
:101B7000AA1FBB1FA617B70710F0A61BB70B881F1D
:101B8000991F5A95A9F780959095BC01CD010895AC
:101B9000A1E21A2EAA1BBB1BFD010DC0AA1FBB1F71
:101BA000EE1FFF1FA217B307E407F50720F0A21BE3
:101BB000B30BE40BF50B661F771F881F991F1A9450
:101BC00069F760957095809590959B01AC01BD017A
:101BD000CF010895EE0FFF1F0590F491E02D0994B9
:041BE000F894FFCFA7
:101BE4002F6465762F7474790048656C6C6F205788
:101BF4006F726C64210000000000730073002F6496
:101C040065762F6E756C6C00000000006D01730129
:101C1400750177017A017D01000000004002CA01CC
:101C2400000000006402FE01000000007903940338
:101C3400000000004002CA01FF000101020202028A
:101C44000303030303030303000000007300730092
:101C5400000000004D0B920AA00AAA0A890B0A0B85
:00000001FF
