:100000000C943B000C944C0B0C9463000C94630018
:100010000C9463000C9463000C9463000C946300D4
:100020000C9463000C9463000C9463000C94AD0B6F
:100030000C9463000C9463000C9463000C946300B4
:100040000C94C60C0C9463000C94A0100C946300E8
:100050000C94D0100C9463000C9463000C94630017
:100060000C9463000C946300E703A6042306B80A0B
:10007000800D1C0EDE0E11241FBECFEFD8E0DEBFB8
:10008000CDBF11E0A0E0B1E0E2E8F2E202C00590ED
:100090000D92A43AB107D9F716E0A4EAB1E001C085
:1000A0001D92A834B107E1F710E0C6E7D0E004C024
:1000B0002297FE010E943B11C836D107C9F70E9462
:1000C0009E000C943F110C94000083B7817F83BF86
:1000D000F89483B7816083BF7894889583B78E7FC7
:1000E00083BF7894F2CF87EC94E00E945F07089575
:1000F0000E94C405BC0182E090E0FB0197838683E7
:1001000085ED94E00E94090608950E94C405BC0193
:1001100081E090E0FB019783868385ED94E00E9467
:10012000090608950E94C405BC01FC0117821682CD
:1001300085ED94E00E94090608950895CF92DF921C
:10014000EF92FF920F931F93CF93DF930E942309A7
:10015000C4EBD1E0CE016DEC71E040E051E021E074
:1001600004E512E07E010E94F8072DECC22E22E089
:10017000D22EC60166EE72E040E051E020E005E6D6
:1001800010E0EE24FF240E94F807CE010E947B08B5
:10019000C6010E947B0880E091E09093ED0380937C
:1001A000EC0385E395E068EE73E00E9431050E9460
:1001B000300980E090E0DF91CF911F910F91FF9087
:1001C000EF90DF90CF900895CF92DF92EF92FF9261
:1001D0000F931F93CF93DF9386EE93E06AE070E076
:1001E00049E051E00E94E70F82E295E061E021E002
:1001F00030E040E050E003E710E0EE24FF240E94EE
:100200008B0ACC24DD24760181E694E00E943F062F
:10021000D701C6018F779070A070B0700097A105CC
:10022000B10541F486EE93E061E070E044E151E015
:100230000E94E70F87EC94E00E94F20781E694E0C9
:100240000E94E50681E694E00E94BA06DC01CB013B
:10025000F3E0880F991FAA1FBB1FFA95D1F780936F
:10026000A4019093A501A093A601B093A70180914A
:10027000A4019091A501A091A601B091A701803E93
:100280002EE2920720E0A20720E0B20788F08091DA
:10029000A4019091A501A091A601B091A70181357B
:1002A00026E4920720E0A20720E0B20708F4DEC0AF
:1002B00086EE93E065E070E046E151E00E94E70FD2
:1002C00082E295E00E945F0A86EE93E06BE070E0C8
:1002D0004CE151E00E94E70F82E295E061E02AE004
:1002E00030E040E050E003E710E0EE24FF240E94FD
:1002F0008B0AC0E0D0E082E794E00E943F0686EEE1
:1003000093E061E070E044E151E00E94E70F87EC88
:1003100094E00E94F20782E794E00E94E50682E7FB
:1003200094E00E94BA06DC01CB01E3E0880F991F3C
:10033000AA1FBB1FEA95D1F78093A4019093A50152
:10034000A093A601B093A7018091A4019091A5016B
:10035000A091A601B091A70188372DE5920722E070
:10036000A20720E0B20788F08091A4019091A50136
:10037000A091A601B091A701893824E8920722E054
:10038000A20720E0B20708F481C082E295E00E9453
:100390005F0A86EE93E06CE070E048E251E00E9474
:1003A000E70F82E295E061E024E630E040E050E0D3
:1003B00003E710E0EE24FF240E948B0AC0E0D0E0A7
:1003C00083E894E00E943F0686EE93E061E070E0EF
:1003D00044E151E00E94E70F87EC94E00E94F207AD
:1003E00083E894E00E94E50683E894E00E94BA0660
:1003F000DC01CB0133E0880F991FAA1FBB1F3A9580
:10040000D1F78093A4019093A501A093A601B09386
:10041000A7018091A4019091A501A091A601B0919E
:10042000A701883726E5920728E1A20720E0B20756
:1004300080F08091A4019091A501A091A601B091B6
:10044000A70189382DE7920728E1A20720E0B2072B
:1004500020F182E295E00E945F0ADF91CF911F9127
:100460000F91FF90EF90DF90CF9008950894C11CFA
:10047000D11CE11CF11C80EAC81686E8D80681E090
:10048000E80680E0F80609F0BFCE1ACF219627E2F1
:10049000C031D20709F02FCF78CF219683E0C83E34
:1004A000D80709F08DCFD5CF86EE93E00E94AB0F31
:1004B00080E091E060E270E041E054E020E430E070
:1004C00001E214E00E94740E86EE93E00E94F00EAA
:1004D00081E694E00E94320682E794E00E943206B0
:1004E00083E894E00E94320684E994E00E94320698
:1004F00085EA94E00E94320686EB94E00E94320680
:1005000087EC94E060E070E041E050E00E94580722
:1005100085ED94E00E94E0050E94760C0E94840C18
:1005200086EE93E066E070E045E351E00E94E70F5D
:100530000E94E40089EE94E061E027E030E040E0D2
:1005400050E002E910E0EE24FF240E948B0A84E9C7
:1005500094E00E943F068CEF94E061E02DE030E0F3
:1005600040E050E005E810E00E948B0A85EA94E044
:100570000E943F068FE095E061E023E130E040E03B
:1005800050E008E710E00E948B0A86EB94E00E949E
:100590003F0660EAC62E66E8D62E61E0E62EF12C14
:1005A00085ED94E00E94E705EC018E819F8181300A
:1005B000910509F450C08130910528F082309105F1
:1005C00009F0DEC090C086EE93E061E070E04CE39D
:1005D00051E00E94E70F84E994E00E94E50684E977
:1005E00094E00E94BA06DC01CB0123E0880F991F3A
:1005F000AA1FBB1F2A95D1F78093A8019093A90148
:10060000A093AA01B093AB0184E994E00E943F0655
:100610008091A8019091A901A091AA01B091AB018C
:10062000803027E7920721E0A20720E0B20708F414
:100630009FC08091A8019091A901A091AA01B091B9
:10064000AB01813024EF920721E0A20720E0B2073E
:1006500008F496C08DC086EE93E061E070E04EE352
:1006600051E00E94E70F85EA94E00E94E50685EAE2
:1006700094E00E94BA06DC01CB0103E0880F991FC9
:10068000AA1FBB1F0A95D1F78093AC019093AD01CF
:10069000A093AE01B093AF0185EA94E00E943F06BB
:1006A0008091AC019091AD01A091AE01B091AF01EC
:1006B00080302EEE920722E0A20720E0B20708F475
:1006C00057C08091AC019091AD01A091AE01B09165
:1006D000AF0181302BE6920723E0A20720E0B207AA
:1006E00008F44EC045C086EE93E061E070E040E45F
:1006F00051E00E94E70F86EB94E00E94E50686EB4E
:1007000094E00E94BA06DC01CB0113E0880F991F28
:10071000AA1FBB1F1A95D1F78093B0019093B10126
:10072000A093B201B093B30186EB94E00E943F0620
:100730008091B0019091B101A091B201B091B3014B
:10074000803025E6920724E0A20720E0B20780F07F
:100750008091B0019091B101A091B201B091B3012B
:10076000813022EE920724E0A20720E0B20740F099
:1007700086EE93E065E070E046E151E00E94E70F0D
:10078000CE010E94B1050894C108D108E108F10822
:10079000C114D104E104F10409F002CF89EE94E020
:1007A0000E945F0A8CEF94E00E945F0A8FE095E060
:1007B0000E945F0A84E994E00E94E50685EA94E0DD
:1007C0000E94E50686EB94E00E94E506B1CE88E93A
:1007D00091E09093E7038093E6031092D80410927F
:1007E000D7041092DA041092D904E7EDF4E080E720
:1007F00091E09293829316821086178220E631E070
:1008000037872687118A108A138A128A109229053F
:1008100010922A0510922B0510922C0510922D058E
:1008200010922E0510922F05109230051092260579
:100830001092F0041092F1041092F2041092F3045A
:100840001092F4041092F5041092F6041092F7043A
:100850001092ED0410920305109204051092050504
:1008600010920605109207051092080510920905CE
:1008700010920A05109200051092160510921705A5
:10088000109218051092190510921A0510921B0566
:1008900010921C0510921D05109213051092CA04A7
:1008A0001092C9041092CC041092CB04E9ECF4E04D
:1008B00092938293168210861782089522E431E083
:1008C000FC0137832683089580E0089580E0089531
:1008D00080E090E0089580E090E0089580E090E06E
:1008E000089582E491E0909342058093410585E369
:1008F00095E06DE375E00E9431050895CF93DF9395
:10090000E0913705F09138053097B9F4E0E0F0E078
:1009100015C0DC01C681D7813D91332331F0299187
:10092000222331F03217C1F303C02881222351F072
:100930000280F381E02D309719F03297309749F714
:10094000EBE3F5E0CF01DF91CF91089580E691E0F0
:10095000909336058093350510923805109237052F
:1009600010923A051092390580E591E090933C058C
:1009700080933B050895CF93DF939C01FB01A281F7
:10098000B381109729F08081918111969C938E9369
:10099000C081D181209711F0BB83AA83D90112961F
:1009A0008D919C911397E817F90721F41396DC9326
:1009B000CE931297D90114968D919C911597E817B3
:1009C000F90731F48281938115969C938E93149745
:1009D0001182108213821282DF91CF910895CF93FA
:1009E000DF93DC01FB0112962D913C911397621766
:1009F000730781F414968D919C9115976817790768
:100A000049F413961C921E92129715961C921E92F0
:100A1000149724C06081718182819381EB019B8353
:100A20008A8342815381EA0179836883E217F3075D
:100A300031F48081918113969C938E931297149632
:100A40008D919C911597E817F90721F415965C9301
:100A50004E9314971182108213821282DF91CF91EC
:100A60000895CF93DF93FC01DB018281938100978E
:100A700061F4738362837583648313961C921E9260
:100A8000129711961C921E920DC0C481D581798354
:100A900068831396DC93CE93129711961C921E9244
:100AA00075836483DF91CF910895CF93DF93FC0129
:100AB000DB01228133812115310561F47383628367
:100AC0007583648313967C936E93129711967C932F
:100AD0006E9311C084819581EC01798368831396AC
:100AE0009C938E93129711963C932E9375836483F7
:100AF000F90173836283DF91CF910895FC01118224
:100B00001082138212820895FC01A281B381109792
:100B100059F08D919C9193838283A481B5818D91AD
:100B20009C911197958384830895CF93DF93C0E0C0
:100B3000D0E0BE0183E0660F771F8A95E1F7675B1F
:100B40007A4FFB01158214821782168283E495E0A6
:100B50000E9431052196C830D10559F7DF91CF9118
:100B60000895CF93DF930F92CDB7DEB7BC018FB757
:100B70008983F89483E495E00E94310589818FBFD1
:100B80000F90DF91CF9108950F931F93CF93DF9331
:100B90000F92CDB7DEB78FB78983F89400914505E2
:100BA0001091460583E495E0B8010E94BB04898159
:100BB0008FBFC8010F90DF91CF911F910F910895C2
:100BC00060E070E044E650E00E9458070895EF921C
:100BD000FF920F931F93CF93DF930F92CDB7DEB7A2
:100BE0008C010E94F2078FB78983F894F801E0889E
:100BF000F188C8010E96B7010E94BB0489818FBF9E
:100C0000C7010F90DF91CF911F910F91FF90EF904F
:100C100008950F931F93CF93DF930F92CDB7DEB755
:100C20008C018FB78983F894C8010E960E94310514
:100C3000C8010E945F0789818FBF0F90DF91CF911C
:100C40001F910F91089580E691E090934405809361
:100C500043051092460510924505109248051092E2
:100C600047050895FC0110821182128213821482BA
:100C700015821682178217861686108A08950F939A
:100C80001F93CF93DF930F92CDB7DEB78C01FC019A
:100C900080898823E1F48FB78983F89414821582C0
:100CA000168217828091950590919605A0919705DF
:100CB000B091980582879387A487B5870E948F0C8F
:100CC000F8019187808789818FBF81E0808B0F90A9
:100CD000DF91CF911F910F9108950F931F93FC0106
:100CE0008B01BA01A90182859385A485B585481B2E
:100CF000590B6A0B7B0B0084F185E02D42305105C6
:100D000061057105C8F020E030E080E091E08E1BC5
:100D10009F0BA0E0B0E0080F191F2A1F3B1F415096
:100D2000504060407F4F762F652F542F4427040F8B
:100D3000151F261F371F19C0411551056105710583
:100D400019F40E171F0768F420E030E080E091E00E
:100D50008E1B9F0BA0E0B0E0080F191F2A1F3B1F3E
:100D600004C00E1B1F0B20E030E0B801C9011F9129
:100D70000F9108950F931F93CF93DF930F92CDB7E9
:100D8000DEB78C01FC0180898823A1F08FB78983AD
:100D9000F8940E948F0CBC01209195053091960526
:100DA000409197055091980589818FBFC8010E9495
:100DB0006D0605C0F80164817581868197810F9069
:100DC000DF91CF911F910F9108950F931F93CF93B0
:100DD000DF930F92CDB7DEB78C01FC0180898823A9
:100DE00061F18FB78983F8940E948F0CBC01209128
:100DF0009505309196054091970550919805C80149
:100E00000E946D06AB01BC01F801448355836683E3
:100E1000778380819181A281B381840F951FA61F62
:100E2000B71F80839183A283B383868597850196BC
:100E30009787868789818FBF108A0F90DF91CF9126
:100E40001F910F910895CF93DF93EC01CB0121E027
:100E5000FB012587BE010E94FE0CE0910206F09185
:100E600003069D858585891710F40E945608DF9139
:100E7000CF9108950F931F93CF93DF93EC010E94BE
:100E80000B098C01CE01B8010E94FE0CE091020614
:100E9000F091030681E0D8011D962C911D97958550
:100EA000921708F080E0DF91CF911F910F91089584
:100EB000FC01728761875487438715860895CF9315
:100EC000DF930F92CDB7DEB7FC018FB78983F8941B
:100ED00082819381009759F4818592852385348599
:100EE0008217930740F401969287818704C0CF014F
:100EF0000E943A0701C080E099819FBF882311F0CA
:100F00000E9456080F90DF91CF9108956F927F92C3
:100F10008F929F92AF92BF92CF92DF92EF92FF9209
:100F20000F931F93CF93DF93CDB7DEB764970FB6C0
:100F3000F894DEBF0FBECDBF6C014A015B0119867C
:100F40001A861B861C861D861E861F86188A1E8290
:100F5000FC0115868FB78983F89460900206709023
:100F6000030681859285009721F0019792878187FA
:100F700015C0411551056105710551F0CE0102966C
:100F800060E0A501940103E217E076010E948B0A5C
:100F9000C601B3010E94EA0C0E94560889818FBFE6
:100FA00081149104A104B10421F0CE0102960E94A3
:100FB0005F0AF601958581E0892764960FB6F8945B
:100FC000DEBF0FBECDBFDF91CF911F910F91FF907C
:100FD000EF90DF90CF90BF90AF909F908F907F90D9
:100FE0006F90089540E050E0BA010E94860708958E
:100FF000CF92DF92EF92FF920F931F93CF93DF93E5
:101000000F92CDB7DEB76C01CB0130918905F601A7
:1010100034873F5F3093890577836683840F951FFC
:101020000197958384835187408784E090E093877C
:10103000828725872687108B0787F28AE18A148AA0
:10104000138AC6010E94C70A8FB78983F894F601F4
:10105000258530E0C901A3E0880F991FAA95E1F723
:10106000820F931F80559A4F908F878B88EF95E062
:10107000968B858BE091F805F091F9050190F08150
:10108000E02DB601099589818FBF0F90DF91CF9137
:101090001F910F91FF90EF90DF90CF900895809176
:1010A0000106813011F40E94E00B0895CF93DF9385
:1010B0000F92CDB7DEB78FB78983F8940E94BC0D2D
:1010C0002091020630910306809104069091050656
:1010D0002817390751F00E946A0D809104069091FB
:1010E00005060E944E0D0E944F0889818FBF0F9008
:1010F000DF91CF9108950F931F93CF93DF930F92BA
:10110000CDB7DEB78C018FB78983F894E091F805ED
:10111000F091F9050280F381E02D88EF95E0B801A8
:101120000995C8010E94E60DD8011D964C911D97A6
:10113000242F30E0C90153E0880F991F5A95E1F739
:10114000820F931F80559A4F58969C938E93579772
:1011500056969C938E935597E0910206F091030664
:101160008685481728F00E946A0DC8010E944E0D1E
:10117000E0910206F0910306D8011D969C911D97FF
:101180008585891710F40E94560889818FBF0F90BA
:10119000DF91CF911F910F910895CF93DF93EC01D1
:1011A0000E9455058A819B81009779F0EF81F8852F
:1011B000309759F081E090E00E8002C0880F991FAF
:1011C0000A94E2F79081982B9083DF91CF91089554
:1011D000CF93DF93EC010E94EF048A819B810097FB
:1011E00081F4EF81F885309761F081E090E00E8026
:1011F00002C0880F991F0A94E2F780959081982386
:101200009083DF91CF910895FC0166830895FC01DE
:10121000708767830895DC011296ED91FC91139716
:1012200014962D913C911597CF0140E055855417A8
:1012300010F0452FCF01E217F30721F00190F08164
:10124000E02DF4CF08950E94930D0E9471048AE866
:1012500095E00E9433090E9495050E94760C08953E
:101260000E940A0B0895FC011286168217821086CE
:1012700011860895CF92DF92EF92FF920F931F9302
:10128000CF93DF930F92CDB7DEB76C017B018FB7A1
:101290008983F894F60102811381CB010E947E05B7
:1012A000C601B7010E943105F70187819085A185AC
:1012B000B28583879487A587B68701151105D1F07C
:1012C0000E943D0CF7010781108521853285601B46
:1012D000710B820B930B1616170618061906ACF441
:1012E0000E942D0CDC01CB01F60186839783A08739
:1012F000B1870BC0F60186839783A087B187BC01B5
:10130000CD010E945B0C0E94E70BF7018481826093
:10131000848389818FBF0F90DF91CF911F910F91AF
:10132000FF90EF90DF90CF9008950F931F93CF938E
:10133000DF930F92CDB7DEB78C018FB78983F89416
:10134000C8010E94BB04F80182819381009711F4C7
:101350000E94F70B89818FBF0F90DF91CF911F9172
:101360000F910895CF92DF92EF92FF920F931F9308
:10137000CF93DF938C010E946F0CD8011296ED91F0
:10138000FC9113978FEFC82E8FEFD82E8FEFE82E9A
:101390008FE7F82E3DC0248121FF37C04385548557
:1013A00065857685E8018E819F81A885B98584173A
:1013B0009507A607B707D0F0822F8460848380FF4B
:1013C00005C0822F8C608D7F84831FC087819085AC
:1013D000A185B28583879487A587B6878C159D05DF
:1013E000AE05BF0590F46C017D010FC0481B590B81
:1013F0006A0B7B0B43875487658776874C155D05A1
:101400006E057F0510F46A017B010190F081E02DEB
:10141000309709F6F801C281D3811CC08C8182FF0C
:101420000EC069897A89ED81FE818F859889099539
:101430008C818B7F8C8380FF02C0BE0102C060E084
:1014400070E00990D881C02D6115710519F0C801AF
:101450000E949509209711F70E94550CDC01CB01E1
:101460008C159D05AE05BF0530F0E8018E839F8386
:10147000A887B98782CFDFEFCD16DFEFDD06DFEF7C
:10148000ED06DFE7FD0618F00E94F70B0FC0C80E4F
:10149000D91EEA1EFB1EC701B6010E945B0CDC01CF
:1014A000CB01F80186839783A087B187DF91CF9125
:1014B0001F910F91FF90EF90DF90CF900895BC01A6
:1014C0008AE895E00E94950908950F931F93CF93A2
:1014D000DF93EC01CB01BA0121E732E040E050E0BC
:1014E0000E94F8106B5F7F4F8F4F9F4F2AE030E0D4
:1014F00040E050E00E94171189019A010950104004
:10150000204030400F83188729873A87DF91CF9199
:101510001F910F910895CF92DF92EF92FF920F9358
:101520001F93CF936C01C62FBA01A9010E94650ACF
:10153000F60116830583F28AE18ACC2319F481E04F
:10154000848302C0F6011482809102069091030602
:10155000F601908B87878AE895E0B6010E943A09E8
:10156000CF911F910F91FF90EF90DF90CF90089552
:1015700010928D0510928C0510928F0510928E0599
:1015800088E791E090938B0580938A050895CF9327
:10159000DF93EC015F854889EC81FD8120E030E03C
:1015A0006FEF07C0AE81BF81A20FB31F6C932F5F97
:1015B0003F4F8885998528173907A0F35083DF01AD
:1015C00011974C93DF0112971C92DF01139780E86B
:1015D0008C93DF0114971C92DF01159782E08C93A6
:1015E00011978F5F8831D9F7DF015B9789898C93D9
:1015F000DF015C978A898C93DF015D978AE18C9388
:1016000011978F5F8032D9F7B397FD83EC83DF9119
:10161000CF9108950E94D50B0E94E30B81E0809347
:1016200001060E94BC0D80910406909105069093DE
:101630000306809302060E94E70B0E94DD0BA09137
:101640000206B09103061496CD91CDBFDD91DEBFA9
:10165000FF91EF91DF91CF91BF91AF919F918F91CA
:101660007F916F915F914F913F912F911F910F91BA
:10167000FF90EF90DF90CF90BF90AF909F908F90B2
:101680007F906F905F904F903F902F901F900F90A2
:101690000FBE0F90189508950F920FB6F8940F9201
:1016A0001F9211242F923F924F925F926F927F92DE
:1016B0008F929F92AF92BF92CF92DF92EF92FF9262
:1016C0000F931F932F933F934F935F936F937F934A
:1016D0008F939F93AF93BF93CF93DF93EF93FF933A
:1016E000A0910206B091030614960DB60D920EB6A7
:1016F0000D928091040690910506909303068093C5
:101700000206A0910206B09103061496CD91CDBFBA
:10171000DD91DEBFFF91EF91DF91CF91BF91AF914E
:101720009F918F917F916F915F914F913F912F91F9
:101730001F910F91FF90EF90DF90CF90BF90AF90EF
:101740009F908F907F906F905F904F903F902F90E1
:101750001F900F900FBE0F9018951F920F920FB60B
:101760000F9211242F933F934F935F936F937F9327
:101770008F939F93AF93BF93EF93FF938AE895E086
:101780000E94B2090E94770DFF91EF91BF91AF9136
:101790009F918F917F916F915F914F913F912F9189
:1017A0000F900FBE0F901F9018955A98529AE9E625
:1017B000F0E08081836080830895E098E89A08953E
:1017C0005A985A9A08958CE0809381000895109257
:1017D000850010928400B198EFE6F0E0808182608D
:1017E0008083E1E8F0E08081846080830895B1988F
:1017F000EFE6F0E080818D7F8083E1E8F0E080819A
:101800008B7F808310928500109284001092890053
:10181000109288000895CF93DF9300D000D0CDB709
:10182000DEB780918400909185009C838B838091AA
:101830008400909185009A8389832B813C818981E2
:101840009A812817390769F78B819C810F900F9037
:101850000F900F90DF91CF910895AB01BC01E8E8A4
:10186000F0E080819181841B950B9183808380813E
:101870009181BC0180E090E008950F931F930E9436
:101880000B0C00918800109189008017910728F4B3
:10189000081B190B20E030E003C000E010E09801C5
:1018A000B801C9011F910F9108950E940B0CBC0152
:1018B00080E090E00895DC01CB01803020E09207C9
:1018C00021E0A20720E0B20710F08FEF9FEF909386
:1018D000890080938800BC0180E090E008958FEF3C
:1018E0009FEF9093890080938800089514BC15BCE5
:1018F00015BA10926E0010929505109296051092EE
:10190000970510929805089515BA16BC85B58260A2
:1019100085BDEEE6F0E08081816080830895CF93FD
:10192000DF930F92CDB7DEB78FB78983F89485B573
:101930008D7F85BD86B595B5926095BD99819FBF18
:1019400090E00F90DF91CF910895CF93DF930F92A6
:10195000CDB7DEB78FB78983F894809195059091C4
:101960009605A0919705B09198050196A11DB11D0E
:101970008093950590939605A0939705B09398054D
:1019800089818FBF0F90DF91CF9108951F920F92A1
:101990000FB60F9211242F933F934F935F936F9342
:1019A0007F938F939F93AF93BF93EF93FF930E9487
:1019B000A50CFF91EF91BF91AF919F918F917F9176
:1019C0006F915F914F913F912F910F900FBE0F90AC
:1019D0001F9018950F931F93CF93DF938C01EB010A
:1019E000CB010E94010EC801BE010E94CD080D8BE3
:1019F0001E8BDF91CF911F910F910895CF93DF93AD
:101A0000EB018D899E89DC01ED91FC910280F381CF
:101A1000E02D0995CE010E94E60D8F89988D9E8B51
:101A20008D8BDF91CF910895FC01A0910206B091BA
:101A3000030695851D968C911D97981778F08589DA
:101A40009689FC01428153812481358142175307D5
:101A500029F021E02093AD050E9484050895CF93DD
:101A6000DF93EC014A855B8560E070E08AE995E0F0
:101A70000E94650A81E080939E051092AC05109249
:101A8000AB0584E19DE09093A00580939F05D093E2
:101A9000AA05C093A905DF91CF91089520919905DA
:101AA0002223B9F4DC015596ED91FC9156972281E1
:101AB0003381448155812417350759F00E942F0D39
:101AC0008AE895E06AE975E00E943A0981E080932E
:101AD0009905089580919905882341F08AE895E059
:101AE0006AE975E00E949509109299050895809120
:101AF000AD05882321F00E9456081092AD05089587
:101B00001092A1051092A2051092A3051092A405AF
:101B10001092A5051092A6051092A7051092A8058F
:101B200010929E0508950F931F93CF93DF93109209
:101B3000AF0500E010E0E80183E0CC0FDD1F8A95DF
:101B4000E1F7C00FD11FC055DA4FCE01602F0E94C0
:101B50000409CE016FEA75E00E9407090F5F1F4F6D
:101B60000830110541F78091AF058093AE05DF91F4
:101B7000CF911F910F9108952091AF05E22FF0E0D2
:101B8000DF0144E0B595A7954A95E1F7A458BE4F0B
:101B90008C918F3F31F4EF70F070E458FE4F8081EC
:101BA00001C08C5F90E0FC0133E0EE0FFF1F3A951F
:101BB000E1F7E80FF91FE055FA4F82819381909386
:101BC0000506809304062093AE050895BC01DC0150
:101BD0001D962C9130E0C90153E0880F991F5A954A
:101BE000E1F7820F931F80559A4FDC01ED91FC9134
:101BF0000190F081E02D09958091AF058093AE05AD
:101C00000895BC01DC011D962C9130E0C901E3E090
:101C1000880F991FEA95E1F7820F931F80559A4F1D
:101C2000DC01ED91FC910280F381E02D099580911A
:101C3000AF058093AE0508951092FB051092FA054A
:101C40001092FD051092FC05E8EFF5E080E791E0C9
:101C50009093F9058093F805168210861782E0EBC1
:101C6000F5E0282F892F1382128215821482208397
:101C70008183168210861782399695E0E83FF9072E
:101C800091F70895EF92FF920F931F93CF93DF93F5
:101C90008C010E94C405EC010097F9F0D801ED9188
:101CA000FC910284F385E02DC80166E870E040E015
:101CB00050E020E030E000E010E0EE24FF24099541
:101CC0008DE090ED9F838E831D821C82809144065F
:101CD00090914506BE010E940906DF91CF911F91A8
:101CE0000F91FF90EF900895AF92BF92CF92DF9245
:101CF000EF92FF920F931F93CF93DF930F92CDB785
:101D0000DEB75B016A0179010E947E04909323068D
:101D1000809322061092450610924406909307067F
:101D20008093060688E096E060E070E041E050E0D5
:101D30000E9458078091220690912306DC01ED91C4
:101D4000FC910284F385E02D61E870E0A601950125
:101D500009958091220690912306DC01ED91FC917A
:101D60000284F385E02D63E870E042E45EE020E069
:101D700030E000E010E0EE24FF24099580EC898338
:101D80008091220690912306DC01ED91FC91028462
:101D9000F385E02D62E870E0AE014F5F5F4F21E018
:101DA00030E009950F90DF91CF911F910F91FF9037
:101DB000EF90DF90CF90BF90AF90089510920B06F8
:101DC00010920A0610920D0610920C06EAE0F6E058
:101DD00080E791E09293829316821086178208958D
:101DE000E1ECF0E02081286120832081206C2083B9
:101DF000909347068093460680E00895E1ECF0E07A
:101E00008081877E808380818F73808380E00895C6
:101E10000F931F93CF93DF930F92CDB7DEB7DC0103
:101E20008B0160E020E030E080E090E02EC07FB7E2
:101E30007983F8941D967C911D971C96EC911C97C4
:101E40007E17E9F05096ED91FC915197E70FF11D47
:101E50007081FA01E80FF91F70831D967C911D9720
:101E60007F5F1D967C931D971B96EC911B977E17A9
:101E700018F01D961C921D972F5F3F4F01C061E027
:101E800079817FBF613021F001968017910779F643
:101E9000C9010F90DF91CF911F910F910895FC011F
:101EA000248935894689578960E472E48FE090E09F
:101EB0000E94171121503040E1ECF0E08081108247
:101EC0001092C0003093C5002093C4008083089511
:101ED000EF920F931F93FC01DA01633839F16438F4
:101EE00038F46138C9F06238F0F4603871F507C031
:101EF000653811F16538E8F0663839F521C08D9103
:101F00009D910D90BC91A02D848B958BA68BB78B4A
:101F1000CF010E944F0F19C0518B408B138B028B46
:101F20002387E08612C08C91808F0FC0528F418F23
:101F30000CC08C91878709C08091C100806103C06B
:101F40008091C1008F7E8093C10080E090E01F915E
:101F50000F91EF900895FC01118612861486158664
:101F600017868AE0808F128E118E168640E051EE21
:101F700060E070E0448B558B668B778B1092C000CD
:101F80001092C100CF010E944F0F86E08093C200E3
:101F90000895CF93DF930F92CDB7DEB7FC018FB7D3
:101FA0008983F8948285A289B389A80FB11D8C9189
:101FB0008093C60082858F5F9085891708F080E046
:101FC000828789818FBF0F90DF91CF910895CF9243
:101FD000DF92EF92FF920F931F93CF93DF930F92B5
:101FE000CDB7DEB7DC016B017A0119965C911997C8
:101FF0001A966C911A9730E000E010E080E090E0D3
:102000002AC02FB72983F89419964C911997242F39
:102010002F5F18967C911897271708F020E01A96E2
:102020007C911A97271789F0F701E80FF91F708143
:102030005296ED91FC915397E40FF11D7083199620
:102040002C9319970F5F1F4F01C031E029812FBFDB
:10205000313021F001968C159D0599F6561761F4E3
:102060008FB78983F8948091C00085FF03C0CD01AC
:102070000E94C90F89818FBFC8010F90DF91CF9156
:102080001F910F91FF90EF90DF90CF9008950F93E5
:102090001F93CF93DF930F92CDB7DEB78C01909152
:1020A000C6009983D8011C962C911C97822F8F5FB4
:1020B0001B963C911B97831708F080E0D80150963F
:1020C000ED91FC915197E20FF11D90831C968C933A
:1020D0001C971D969C911D97891771F48F5F1D9613
:1020E0008C931D971B969C911B97891710F01D963A
:1020F0001C9281E0F8018687D8011F968C911F976A
:10210000882361F0ED91FC910084F185E02DC801F8
:1021100061E070E0AE014F5F5F4F09959981F80172
:10212000808D981739F4018CF28DE02D309711F0E5
:10213000C80109950F90DF91CF911F910F910895DC
:102140001F920F920FB60F9211242F933F934F932C
:102150005F936F937F938F939F93AF93BF93EF930F
:10216000FF9380914606909147060E944710FF9189
:10217000EF91BF91AF919F918F917F916F915F91FF
:102180004F913F912F910F900FBE0F901F90189578
:10219000FC0131852285321711F00E94C90F089584
:1021A0001F920F920FB60F9211242F933F934F93CC
:1021B0005F936F937F938F939F93AF93BF93EF93AF
:1021C000FF9380914606909147060E94C810FF91A8
:1021D000EF91BF91AF919F918F917F916F915F919F
:1021E0004F913F912F910F900FBE0F901F90189518
:1021F000629FD001739FF001829FE00DF11D649FEB
:10220000E00DF11D929FF00D839FF00D749FF00D76
:10221000659FF00D9927729FB00DE11DF91F639F17
:10222000B00DE11DF91FBD01CF0111240895A1E2F8
:102230001A2EAA1BBB1BFD010DC0AA1FBB1FEE1F40
:10224000FF1FA217B307E407F50720F0A21BB30B8B
:10225000E40BF50B661F771F881F991F1A9469F707
:1022600060957095809590959B01AC01BD01CF0163
:102270000895EE0FFF1F0590F491E02D0994F89456
:02228000FFCF8E
:102282002F6465762F7474790053746172742031EF
:102292006D730A002E004641494C0A005374617264
:1022A200742031306D730A005374617274203130BE
:1022B200306D730A00424547494E0A003100320030
:1022C20033002F6465762F6E756C6C000000000081
:1022D2005E046404660468046B046E04000000007B
:1022E2003105BB04000000005505EF0400000000AA
:1022F200CD08E808000000003105BB04FF00010121
:1023020002020202030303030303030300000000AB
:102312009D009D0000000000AB0FF00EFE0E080FA6
:04232200E70F680F4A
:00000001FF
